:0200000270008C
:1000000000EF0020DD9207000593070055920700DE
:10001000099307000B9307000D93070000000000F1
:10002000000000000000000000000000394B070045
:1000300011930700000000001393070015930700B9
:100040001793070017930700F1320700653C07007C
:10005000992D0700179307001793070017930700C0
:1000600017930700179307001793070017930700CC
:1000700017930700179307001793070017930700BC
:1000800017930700E5080700179307001793070069
:10009000C50907001793070065910700179307002C
:1000A000179307001793070017930700179307008C
:1000B00017930700179307000000000000000000DE
:1000C000179307001793070017930700179307006C
:1000D000179307001793070017930700000000000D
:1000E0000000000000000000000000000000000010
:1000F0000000000000000000000000000000000000
:1001000000000000000000000000000000000000EF
:1001100000000000000000000000000000000000DF
:1004000010B5054C237833B9044B13B10448AFF34E
:1004100000800123237010BD182800200000000078
:1004200018C107000C4B43B10C480D4910B5AFF390
:1004300000800C48036823B910BD0A48036833B92B
:100440007047094B002BF7D0BDE810401847064B0A
:10045000002BF5D0184700BF0000000018C10700AE
:100460001C2800201428002000000000154B002B41
:1004700008BF134B9D46A3F5803A00218B460F46DB
:100480001348144A121A00F063F80F4B002B00D0E7
:1004900098470E4B002B00D0984700200021040005
:1004A0000D000D48002802D00C48AFF3008000F08A
:1004B0002BF82000290007F06FFB00F011F800BFB7
:1004C0000000080000EF0020000000000000000015
:1004D000182800208C3B00200000000000000000D5
:1004E00008B5074B044613B10021AFF30080054B5C
:1004F0001868836A03B19847204600F031F800BFBE
:1005000000000000BCA6070070B50D4E0D4CA41BEA
:10051000A4100025A54209D10B4E0C4C0AF0C2F8DC
:10052000A41BA4100025A54205D170BD56F82530A6
:1005300098470135EEE756F8253098470135F2E740
:100540000C2800200C2800200C2800201028002057
:1005500002440346934200D1704703F8011BF9E7B8
:10056000FEE700BF80B586B000AF78600023BB8196
:1005700000233B617B687B6107F10C031A46002175
:1005800044F2010000F018F800BF1837BD4680BDE6
:1005900080B400AFBFF34F8F0549054BDB6803F410
:1005A000E062044B1343CB60BFF34F8F00BFFDE706
:1005B00000ED00E00400FA0580B584B000AFF860FB
:1005C000B9607A60FFF7E4FF00BF1037BD4680BD19
:1005D00012F0030F01D007207047094B1A604B1C23
:1005E000DB009BB21A44074B1A600023064A1370C3
:1005F000064A1370064A1080064A11801846704752
:100600003C280020382800203428002044280020DE
:1006100040280020422800202B4B1B888B4201D20F
:10062000092070472DE9F04182B016460C46054678
:1006300002A8002300F8013D00F01EFD234B1A78AC
:10064000D2B2234B1978234B1888CBB281423ABFE0
:100650000133DBB200239A422FD01D4B1F78FFB22B
:100660001A78D3B282423ABF0133DBB20023184A70
:1006700013709DF8070000F02BFD4FEAC708164BDA
:100680001B6803EB080243F8376005B124B900206A
:10069000908002B0BDE8F0810B4B18880F4B1B68AF
:1006A0002246294607FB003008F045FE0A4B1B682E
:1006B0009844A8F804400020EBE79DF8070000F0FC
:1006C00007FD0420E5E700BF402800204428002063
:1006D00034280020422800203C2800203828002010
:1006E000F8B5114C114D124E23782A78DBB29342A3
:1006F00019D02378DBB221783088CAB281423ABF60
:100700000132D2B2002222700A4A126802EBC301FF
:10071000094807880948006852F83320898803FB94
:1007200007009047E0E7F8BD442800203428002067
:10073000422800203C2800204028002038280020A3
:100740004FF40032484BC3F8802003F1C04303F557
:100750003C534FF48032C3F84823C3F808230121E7
:1007600059602F221046013800BF00BF00BF00BFF4
:1007700000BF00BF00BF00BF00BF00BF00BF00BF81
:1007800000BF00BF00BF00BF00BF00BF00BF00BF71
:1007900000BF00BF00BF00BF00BF00BF00BF00BF61
:1007A00000BF00BF00BF00BF00BF00BF00BF00BF51
:1007B00000BF00BF00BF00BF00BF00BF00BF00BF41
:1007C00000BF00BF00BF00BF00BF00BF00BF00BF31
:1007D00000BF00BF00BF00BF00BF00BFC3D1996012
:1007E000002322490B601046013800BF00BF00BF44
:1007F00000BF00BF00BF00BF00BF00BF00BF00BF01
:1008000000BF00BF00BF00BF00BF00BF00BF00BFF0
:1008100000BF00BF00BF00BF00BF00BF00BF00BFE0
:1008200000BF00BF00BF00BF00BF00BF00BF00BFD0
:1008300000BF00BF00BF00BF00BF00BF00BF00BFC0
:1008400000BF00BF00BF00BF00BF00BF00BF00BFB0
:1008500000BF00BF00BF00BF00BF00BF00BFC3D1CB
:10086000034A1370704700BF00E100E05C280020DD
:100870004D28002043780133DBB282789A4208BFCA
:10088000002302789A4207D00B70437803EB4303AE
:10089000406800EBC300704700207047EFF305830A
:1008A000C3F30803C3B1103B5AB2002A0EDB02F1B6
:1008B000604303F5614393F800335B09DBB2022B1D
:1008C0000CD0062B0CBF01200220704703F00F0351
:1008D000034AD35C5B09F1E70220704700207047B0
:1008E00014ED00E02F4B0022C3F84021C3F844214F
:1008F000C3F84821C3F84C21C3F80021C3F80421F0
:10090000294B1B68002B4CD02DE9F04102F18042AD
:1009100002F58832D2F80455244A1268AD1A25F03F
:100920007F451A6895421ED30026B046204F07E047
:100930005A6998699047BCB122682346AA4213D8E5
:10094000AD1A1644DC691A7C002AF4D083F81080B2
:100950003A68002AECD09969586990470028EAD093
:10096000FFF700FEE7E70026124B1B78124A1278C9
:100970009A420BD0104B1A78104B43F822604FF478
:1009800080120F4BC3F80021BDE8F0810133DBB2C8
:10099000022B02D0084A1370ECE70022064B1A70B3
:1009A000E8E7704700100140642800205C28002020
:1009B00048280020582800205928002050280020CE
:1009C00000E100E02DE9F04F8BB09D4BD3F800E043
:1009D0009C4BD3F800909C4B1B789C4A12789A420F
:1009E0003AD00133DBB2022B32D0974A1370964BC8
:1009F0001A78974B53F822700EEB070323F07F43CE
:100A00008F4A136001230493924B93F800A0924BFA
:100A10001B6805938A4B1B680793904B93F800B0B3
:100A20004B46D4460022099208920192012202927A
:100A30000021069203910CF1FF3C5FFA8CFCBCF1A3
:100A4000FF0F34D0059C04EBCC0014F83C20EAE105
:100A500000227D4B1A70CAE700270497D4E7766816
:100A6000002B00F0E0819E4209D01D46EC69002C6D
:100A700000F0D981A64200F0CC812546F6E71D465C
:100A80001E46D3F81C80B8F1000F03D04346029CE9
:100A90000194C1E1724C0123A3604346069C099472
:100AA000A3460894039C0794CDF804B0B4E1019ADE
:100AB000002A31D1089B13B1614B079A1A60099B38
:100AC00013B1664B83F800B0049B43BB5D4B1B68BE
:100AD000B3EB090318BF012304930024594B1B688F
:100AE0001D4603935D4B1B780293554B1F684FF0D7
:100AF00000094E46DFF86CC14FF0010ECDF804E05E
:100B00000AF1FF3A5FFA8AFABAF1FF0F00F0AC80FF
:100B1000059B03EBCA084CE04A4A1360CAE7494BFD
:100B20001B6800210C4608460E46049D07E009B1EB
:100B300044490B60D21B1A60D0E7634629469BB13B
:100B40001A68BA42F3D8BF1A10441E60D3F81CC00A
:100B5000D9680029F1D00EEB000222F07F425A60E2
:100B60009960DC611C46E8E70029B7D00022354BCC
:100B70001A60B3E7791A21F07F419A6891423ABF2F
:100B8000511A19601E6020E0091A2960DD611D46B6
:100B9000DDF804900DE09346401ADBF81C2022B1EA
:100BA00011688142F7D3091A11601860DA61CBF835
:100BB0001C30D4B12346E4695968C81B20F07F403B
:100BC0006045D7D89A6802441A605E609E6083F8D8
:100BD00010E0DE612DB1186829688842D4D9AB468F
:100BE000DAE71D46DDF80490E3E798F8003098F85E
:100BF00001209A4284D003EB4300D8F8042002EB92
:100C0000C0010133DBB288F8003098F802B09B4590
:100C100008BF88F8006012F83030012BC9D14B684A
:100C20001A7C002AC5D18A685A60CA689A600A6923
:100C3000DA604A699A61029A002ABDD05E60BBE719
:100C40005C28002064280020582800205928002013
:100C50005028002060280020682800204C28002010
:100C600000100140FEFF7F00B9F1000F0CD17E4B58
:100C70001B68039A9A420AD1049A42B900227B4B1C
:100C80001A700BB0BDE8F08F774B1D60EFE7002BBB
:100C900000F0BC801E68764BD3F80415754B1B68BA
:100CA000CA1A22F07F4203327348007800285BD0D2
:100CB00096422CBF9B199B1823F07F436C4AC2F8C5
:100CC0004035D2F80425521A22F07F4203325B1AD3
:100CD00023F07F439A42D1D9654BD3F80425C3F85A
:100CE00040252F20013800BF00BF00BF00BF00BF5C
:100CF00000BF00BF00BF00BF00BF00BF00BF00BFFC
:100D000000BF00BF00BF00BF00BF00BF00BF00BFEB
:100D100000BF00BF00BF00BF00BF00BF00BF00BFDB
:100D200000BF00BF00BF00BF00BF00BF00BF00BFCB
:100D300000BF00BF00BF00BF00BF00BF00BF00BFBB
:100D400000BF00BF00BF00BF00BF00BF00BF00BFAB
:100D500000BF00BF00BF00BF00BFC3D14FF40032CF
:100D6000464BC3F8002189E700F1804000F5883048
:100D70004FF48034C0F84443C0F804433F4C4FF470
:100D80000035C4F880512560012404602F2001380B
:100D900000BF00BF00BF00BF00BF00BF00BF00BF5B
:100DA00000BF00BF00BF00BF00BF00BF00BF00BF4B
:100DB00000BF00BF00BF00BF00BF00BF00BF00BF3B
:100DC00000BF00BF00BF00BF00BF00BF00BF00BF2B
:100DD00000BF00BF00BF00BF00BF00BF00BF00BF1B
:100DE00000BF00BF00BF00BF00BF00BF00BF00BF0B
:100DF00000BF00BF00BF00BF00BF00BF00BF00BFFB
:100E000000BF00BFC3D11C48047051E7FFF798FC36
:100E100034E7AE423FF435AE3468F669EE6116B1A0
:100E200035682C443460447894423FF404AE02EBBD
:100E30004205446804EBC5060132D2B290F8028044
:100E4000904508BF002214F83540022C3FF407AE4D
:100E5000032CE8D1002BE6D01974DB69002BFBD101
:100E6000029B0193039BDEE7642800204C280020AE
:100E7000001001405C2800204D28002000E100E027
:100E800012F0030F01D007207047F8B5002A39D0BF
:100E90001D4614460F460646FFF752FC1B4B1D60CD
:100EA00003221B4B1A701B4B1C6004F1180307EB49
:100EB00047019140184622460024147054709770E0
:100EC00053600B4408328242F7D10020124B186065
:100ED000124B1870124B1870124B4FF48012C3F85B
:100EE0008021C02183F814131A6002F18042A2F518
:100EF0006F22C2F8086583F81113D2F804250A4B53
:100F00001A60F8BD034B1A600720F8BD482800207E
:100F1000602800206828002064280020582800202D
:100F20005928002000E100E05C280020094B1B68E4
:100F30004BB152B158B10368187C08B10820704712
:100F400059745A617047082070470720704707207E
:100F5000704700BF682800202DE9F04182B01E4B89
:100F60001C6894B398B3042903D8072002B0BDE8E5
:100F7000F08143696BB317460E460546437C012B4F
:100F80000CBF88464FF00008FFF788FC04EBC00454
:100F90000DF107012046FFF76DFCA0B101220270A0
:100FA00045600E4AD2F804258260C660C0F8108001
:100FB00047619DF8073063704FF48012084BC3F807
:100FC00000210020D2E70420D0E70820CEE7082047
:100FD000CCE70820CAE700BF6828002000100140C5
:100FE00000E100E030B583B0144B1D68F5B100B3EB
:100FF000436903B3044600230374FFF74FFC05EB7A
:10100000C0050DF107012846FFF734FC60B102224C
:10101000027044609DF807306B704FF48012084BEB
:10102000C3F80021002002E0042000E0082003B003
:1010300030BD0820FBE70820F9E700BF6828002042
:1010400000E100E010B50446082902D00020FFF7B7
:1010500089FA23686068984710BD000000B583B026
:1010600000900191034A08216846FFF7D5FA03B0C2
:101070005DF804FB45100700EFF3108272B6114BC8
:101080009B68C3B930B40F4901238B600E4BD3F872
:1010900080400E4D2C400C60C3F88050D3F8844043
:1010A0004C604FF0FF31C3F884100023037002B985
:1010B00062B630BC704701230370002AFAD162B6D1
:1010C000704700BF7C3B002000E100E0FC06FFBC55
:1010D000084B9B686BB160B9EFF3108372B6054A99
:1010E000106805490860506848600021916003B9A4
:1010F00062B670477C3B002000E100E048DF7047AB
:1011000011DF704713DF704708B5084B1B78012BC0
:1011100001D032B908BD0129FBD10221034B19705E
:10112000F7E71046FFF71EFAF4E700BF7428002027
:1011300010B504462021094802F0F7FF38B9002312
:1011400020222146054802F0DDFF18B910BDFFF747
:1011500009FAF4E7FFF706FAF8E700BF6C28002069
:1011600010B5084C06E0FFF7BBFA2378023BDBB270
:10117000022B06D9FFF7C2FF0028F4D0FFF7F2F9DF
:10118000F1E710BD742800200368B3F1FF3F1ED0C3
:1011900000B583B001A800F071F9019B1A78012A0B
:1011A00003D0002003B05DF804FB5A883AB9002050
:1011B000019B5B88834214BF00200120F2E70022DC
:1011C000996843F20803186800F07CF9F0E7002002
:1011D0007047000084B02DE9F04182B008AC84E88B
:1011E0000F009DF82040BDF82260DDF824800A9FA2
:1011F0000B9D01A800F042F984B1012C1AD0032CF8
:101200002ED0022C40D0052C5CD0042C64D0062CAF
:101210006ED002B0BDE8F04104B070473648468059
:10122000856001230370FF220271344A1370FFF7B7
:101230007FFFEEE73048468008EB07032B448360CE
:10124000A5230370FF230371C0F80C80076145617B
:101250000C9B83610122294B1A70FFF769FFD8E7C5
:10126000019B1A78244802705A8842809B688360E8
:10127000AA230371C0F80C800761456101221F4B4E
:101280001A70FFF755FFC4E7019B1978A52912D002
:10129000194A1170598851809B6893601648FF2342
:1012A00003710023C360036143610122134B1A7071
:1012B000FFF73EFFADE7104B00225A809A60FF22F5
:1012C0001A70EBE701F066F818B903220B4B1A709D
:1012D0009FE7FFF747F9F8E707480023438083605B
:1012E000FF230370019B1B790371FFF721FF90E738
:1012F0000422024B1A708CE7782800207428002002
:1013000000B585B0002302930393094B019302F0CB
:10131000C1FE034618B1184605B05DF804FB054947
:101320004FF4FE234B6001A802F0D8FE0346F2E71B
:10133000091107006C28002038B5054600F004FAB2
:10134000044628B935B106F033FA0446FFF708FF22
:10135000204638BD00F04CFF0446F7E738B5FFF7EC
:10136000CFFE28B9134B1C6800230120114D05E066
:10137000FFF7F8F8F6E70133202B0CD000FA03F260
:101380002242F8D05A0903F01F0100FA01F120327D
:1013900045F82210EFE743F208031868FFF7B2FEA2
:1013A00028B943F20803186800F06EF838BDFFF75B
:1013B000D9F8F6E700E100E000B583B001A800F03D
:1013C0005DF8019B1A78A52A07D01879AA2814BFBE
:1013D0000020012003B05DF804FB0120FAE710B5FE
:1013E00000F0E5FB18B900F0C5FB044660B16420CD
:1013F00002F0F6FC00F05CFB40B900F0D8FB40B90D
:1014000000F09EFB044638B9204610BDFFF7AAF84D
:10141000F3E7FFF7A7F8F3E7FFF7A4F8F4E710B551
:1014200088B003AB0024039404940594069402222C
:101430008DF80C2000940FCBFFF7CCFEFFF790FE49
:10144000204608B010BD10B582B0044601A800F0D7
:1014500015F8019B1A7822705A8862809A68A260F7
:101460001A792271DA68E2601A6922615A69626146
:101470009A69A2619B8BA38302B010BD014B0360EC
:10148000704700BF00F00700F0B50346186880F30E
:1014900008885868FF2464B2EFF30585002D01D158
:1014A000A64600472546064621273FBAF0B4002449
:1014B000002500260027F0B4F92040B2004700BF05
:1014C000F0BD00BFCAB11388A9B102460144180299
:1014D00040EA132080B212F8013B5840C0F30313D6
:1014E000584080EA003000B2430103F4FF535840F3
:1014F00083B28A42EBD1184670474FF6FF73E3E799
:1015000018DF704738B514461D46012903D003295A
:101510000ED004BB38BD124B1B78052BF9D1114BF3
:101520001B68002BF5D02A46214604209847F0E797
:101530000B4B1B78022BECD10B4B5B6898470322BB
:10154000074B1A70074B1B68002BE2D02A46214636
:1015500003209847DDE72046FFF704F8DAE700BFED
:10156000A028002098280020C428002000B589B0B9
:101570000122074B1A7005238DF80C30079B00934E
:1015800003AB0FCBFFF726FE09B05DF804FB00BFED
:10159000A128002000B589B003238DF80C300A4B38
:1015A0001B88ADF80E30094B5A6804929A68059270
:1015B000DB680693079B009303AB0FCBFFF70AFE94
:1015C000002009B05DF804FBD02800201C29002071
:1015D00000B589B001238DF80C300B4B1B88ADF89A
:1015E0000E3043F208031A68084B59680491996851
:1015F0000591DB680693009203AB0FCBFFF7EAFD82
:10160000002009B05DF804FBD02800201C29002030
:1016100000B589B003AB00220392049205920692B2
:1016200004228DF80C20002200920FCBFFF7D2FD90
:1016300009B05DF804FB000030B589B003AC14229A
:1016400000212046FEF784FF00258DF80C50084B42
:101650001B88ADF80E30074BDB680693079B0093A1
:1016600094E80F00FFF7B6FD284609B030BD00BF73
:10167000D02800201C29002008B50748074B186017
:101680000222074B1A70074B196802F04EFD00B991
:1016900008BDFEF767FFFBE72C2900203429002056
:1016A000A0280020D428002010B50C4B1B7813B1C3
:1016B0000824204610BD0A48FFF794FC58B90022C0
:1016C0004FF470110648FFF747FC04460028F0D09D
:1016D000FEF748FFEDE7FEF745FFF0E7A128002001
:1016E000A4280020F0B585B005460C461F4603230C
:1016F000009301900291960803966846FFF700FF59
:101700000346A0B1B4F5805F07D93B463A46E11BDA
:10171000E81BFFF7E7FF034648B901230093019553
:10172000029403966846FFF7EBFE034610B1184695
:1017300005B0F0BD0323009301950294039668461B
:10174000FFF7DEFE0346F2E710B584B000230293F4
:101750000393184A0192184A1370184A13801849C3
:1017600001A802F0BBFC044628B10022154B1A70F8
:10177000204604B010BD43F208031A68104B5A60AB
:10178000114A00211148FFF7D1FB68B900224FF43C
:1017900070110F48FFF7E0FB48B900220D4B1A60AB
:1017A0000122084B1A70E3E7FEF7DCFEEEE7FEF7D6
:1017B000D9FEF2E70515070018290020D0280020DF
:1017C0002C290020A02800206D150700D4A60700B2
:1017D000A42800209C280020014B1860704700BFFF
:1017E0009828002010B52D4C43680FCB84E80F00DB
:1017F000237813F0040F04D013F0030F01D0062454
:1018000005E0264A526812F0030F02D00624204653
:1018100010BD2249896811F0030F01D00624F6E7B4
:101820001E48C06810F0030F01D00624EFE70A44F9
:1018300002441B480260B1F5704F01D90C24E6E761
:1018400043F208010968C1F5E0218A4201D90C245C
:10185000DDE7144A144911601449516013F0010F77
:1018600008D0134A0F4B9A60124B1B78012B09D0FA
:101870000824CCE713F0020F14BF0F4A0F4A094B9C
:101880009A60F1E7FFF710FF04460028BFD1054B2F
:101890001B68034A10689847B9E700BF1C2900205D
:1018A000D4280020C428002079160700111607004C
:1018B000D1150700A028002095150700391607004C
:1018C00070B5002839D00546826812F0030F02D0A7
:1018D0001024204670BD1B4A1278052A2FD1466875
:1018E000B600194A12683244184909688A4205D973
:1018F0004FF0FF32144B1A600C24EAE7FFF7D4FED6
:1019000004460028E5D1104B1B683246A9681048F0
:10191000006802F0F7FB04460028DAD10A4D33468E
:101920002A680C4903F090F82B681E442E60074B80
:101930001B689E4218BF0924CBE70E24C9E7082480
:10194000C7E700BFA02800209C280020D428002042
:1019500034290020C0A6070008B50D4B1B6813B141
:101960000823184608BD0B4B1B78042B18BF08230F
:10197000F7D1094B1978094800F046F9034618B128
:101980000021054A1170ECE70521024A1170E8E7D1
:101990009C280020A028002018290020D8280020FA
:1019A00070B5154B1B78032B03D0042B04D00824EF
:1019B00006E00422104B1A70104B1B6813B1082468
:1019C000204670BD0546FFF76FFE04460028F7D19C
:1019D0006E68B6000A4B1B789A19402A01D909246F
:1019E000EEE73246A9680748184407F0A4FC044A09
:1019F00013781E441670E3E7A02800209C280020DE
:101A000018290020D828002008B5124B1B78052B78
:101A100002D00823184608BD0F4B1A680F4B1B68ED
:101A20009A4218BF0823F5D106220A4B1A70FFF715
:101A30003BFE03460028EDD1094B1B68074A11689D
:101A4000586800F02DF903460028E3D10721014A28
:101A50001170DFE7A02800209C280020D428002057
:101A60003429002008B5084B1B78072B01D008202B
:101A700008BD0648FFF7B6FA18B9054B9B689847AA
:101A800008BDFEF76FFDF8E7A0280020A42800207D
:101A9000C428002000B589B006238DF80C30079BC0
:101AA000009303AB0FCBFFF795FB09B05DF804FB88
:101AB000F0B58DB004A8FFF7C6FC079C74B30A9D6F
:101AC00004F58053AB422CD9A5F58056770843F234
:101AD00008031B689C4217D907F580520123009325
:101AE0000192029203936846FFF70AFD08B104468B
:101AF00014E0012300934FF4805201920292039369
:101B00006846FFF7FDFCC8B926F001003B46221AE3
:101B100000F580512844FFF7E5FD044620460DB04E
:101B2000F0BD0123009301954FF480530293A40864
:101B300003946846FFF7E4FC0446EFE70446EDE74C
:101B400000B58DB004A8FFF77EFC089860B1079B34
:101B50006BB943F208031B680022009201938008CE
:101B600002906846FFF7CCFC0DB05DF804FB0A9AC2
:101B70001344F1E700B58DB004A8FFF764FC0898A2
:101B800078B1079B83B943F208031B6803220092D4
:101B90004FF4E02201920293800803906846FFF719
:101BA000AFFC0DB05DF804FB0A9A1344EEE730B5C4
:101BB0008DB004A8FFF747FC079850B10A9C00F5C8
:101BC0008053A34213D943F208031B68984202D9F9
:101BD0000E200DB030BDA4F5805323F001055B0845
:101BE000421B05F580516019FFF77CFDF1E70323E7
:101BF00000934FF480530193029480080390684649
:101C0000FFF77EFCE5E700000B2901D809207047AB
:101C100070B50289053200EB4204A1EB4202D2B258
:101C2000012A35D943189C4201D9092070BD0546C7
:101C30002146194807F07FFB184B1B884FF6FF72AF
:101C4000934204D02A889A4201D00B2070BD134BD6
:101C50005B884FF6FF72934204D06A889A4201D0A3
:101C60000B2070BD2C8905F10A0300224FF6FE758A
:101C700043F20C06A24209D033F8021BA94209D054
:101C8000013230888142F5D1002070BD0B2070BD3B
:101C9000092070BD002070BD382900208010001080
:101CA00008B50022FFF70EFC044A5178137843EA86
:101CB0000123984214BF0B20002008BD38290020C2
:101CC00070DF704771DF704773DF704774DF7047F4
:101CD00076DF70477ADF70477CDF70477FDF7047C1
:101CE00086DF7047A7DF7047A8DF7047A9DF70471E
:101CF000AADF704767DF70470C2813D8DFE800F0D1
:101D000014121212121209120712120D0B000220E5
:101D10007047032070470420704704290CBF05203A
:101D200006207047062070470120704708B5FEF76F
:101D300019FC08BD08B5FEF715FC08BD10B50B462B
:101D4000032824D0144604282BD161B1174B1888DE
:101D50004FF6FF73984224D01321FFF7B9FF00B369
:101D6000FEF700FC10BD104600F00AFD60B9104BF4
:101D70001B689C4215D1012203210E4806F09AFEF1
:101D800078B1FEF7EFFB10BDFEF7ECFBEFE70121AA
:101D90001846FFF7B1FF02460121064806F08AFE09
:101DA00000B910BDFEF7DEFBFBE700BF44260020B4
:101DB000E42900209C29002010B504460846032190
:101DC000FFF79AFF02460321204606F073FE00B992
:101DD00010BDFEF7C7FBFBE710B590B00446114BF2
:101DE0009B798DF8063041F23053ADF8043038223B
:101DF000002102A8FEF7ACFB02238DF80830002179
:101E00008DF80A108DF80B400123ADF8103001ABAE
:101E1000059302A806F027FB08B910B010BDFEF725
:101E2000A1FBFAE79C2900202F4B1B7803B17047D8
:101E300000B58BB0182200212C48FEF789FB2C4BF3
:101E40001B78002B32D00023029303930493059355
:101E5000102202A9274807F05FFA60B90520FFF7B2
:101E6000BBFF224B01221A70234A5A6000221A72C9
:101E70001A825A8225E0204BDA1D00920193012339
:101E80008DF81C3001AA06928DF82430CDF820D0B0
:101E90000420FFF7A1FF154B00221A7002211972CE
:101EA00006A9D960282119825A820AE00620FFF784
:101EB00093FF0E4B00221A705A601A722821198261
:101EC0005A820A48FFF700FF58B94FF480424FF09A
:101ED000A043C3F80C250122034B1A700BB05DF828
:101EE00004FBFEF73FFBF0E7CC290020442900204B
:101EF00098290020632900205C29002070B5B0B02B
:101F0000044606F0BDFB21468E4806F00BFE2388F2
:101F1000023B532B65D8DFE813F0D900640064005E
:101F20006400640064006400640064006400640091
:101F300064006400640054006600640088000201CC
:101F4000640064006400640064002701BB00640056
:101F50006400640064006400640064006400640061
:101F60006400640064006400640064006400640051
:101F70006400640064006400640064006400640041
:101F80006400640064006400640064006400640031
:101F90006400640064006400640064006400640021
:101FA0006400640064006400640064006400640011
:101FB0006400640064006400E300270164006400BE
:101FC000AE004FF0A0434FF40042C3F80C254FF48D
:101FD0008042C3F80825A2885B4B1A8000225B4B25
:101FE0001A7030B070BD30AA802322F89C3D322197
:101FF000574B19604FF400414FF0A043C3F8081548
:10200000012310A950480088FFF772FE38B9514BE0
:102010001B783BB14FF6FF724B4B1A80E1E7FEF79E
:10202000A1FAF4E7FFF700FFF4E74B4C94E8030054
:102030000790ADF82010090C8DF8221003AE102285
:10204000E11D304607F077F909AD18340FCC0FC504
:1020500094E8070085E80700159609AB149310ABC8
:102060003E4A852138480088FFF738FE0028B8D05E
:10207000FEF778FAB5E7A379002BB2D11321324BE2
:102080001888FFF725FE0028ABD0FEF76BFAA8E70B
:10209000237A002BA5D100222C4B1A702C4A1368EE
:1020A000013B13607BB910AB002210921192129287
:1020B0001392149205228DF84020002200920FCB3B
:1020C000FFF788F88DE7FFF7AFFE8AE700211E4B88
:1020D0001888FFF70FFE002883D0FEF743FA80E749
:1020E000A279002A3FF47DAFA37B043BDBB2022B35
:1020F0003FF677AF022A0CBF022301238DF8403050
:102100004FF4C173ADF8443010A90F4B1888FFF796
:10211000EBFD00283FF465AFFEF724FA61E7228A61
:102120000D4B5B8D9A420E4918BF002100230D4ACA
:10213000A088FFF7D5FD00283FF453AFFEF712FA51
:102140004FE700BF9C29002044260020CC29002016
:1021500048260020E12900205C290020DC290020FD
:1021600074290020632900201E4B1C884FF6FF7342
:102170009C4231D01C4B1B781BB3012308221B4906
:102180002046FFF7B3FD034638BB02230022114669
:102190002046FFF7ABFD0346F8B94FF6FF720C215E
:1021A0002046FFF79FFD034643F2020290423FF4B0
:1021B00018AF08283FF415AF43F20402904207D14C
:1021C0000FE700231A4619462046FFF78FFD034606
:1021D000002B3FF406AF00E008231846FEF7C2F9D3
:1021E000FFE600BF44260020982900209029002007
:1021F00070B588B000235B4A13705B4A13704FF0D0
:10220000A0430322C3F83827C3F83C274FF4804289
:10221000C3F808254FF40042C3F80825534806F0D8
:102220008DFF044610B1204608B070BD5048FFF73E
:10223000D3FA00F063FA04460028F4D14D4802F0C6
:102240008DFC00286CD101224B4B1A709DF8003098
:10225000012262F3030362F3071308AD05F8203D82
:10226000464E304607F0DAF882B231462846FFF78C
:1022700033FD002869D10822002101A8FEF768F982
:102280000C23ADF804301823ADF806300023ADF868
:1022900008304FF4C873ADF80A3001A8FFF71AFDF3
:1022A000002855D10C22002101A8FEF751F908237E
:1022B000ADF80430324B0293324B039301A93248FC
:1022C00006F044FA002846D11C22002101A8FEF79E
:1022D0003FF90023019340F6CD4202924FF4804231
:1022E000039203228DF81020ADF812308DF81430CF
:1022F0000693264B079301A806F07EF970BB244A8B
:10230000137803F0F003032161F306136FF3C7138F
:1023100013700723537010239370FFF785FD82E736
:1023200001A8FFF7CFFC68B99DF8053001338DF89F
:10233000053001A90020FFF7C3FC002886D0FEF776
:1023400011F983E7FEF70EF9EEE7FEF70BF992E7D6
:10235000FEF708F9A6E7FEF705F9B5E7FEF702F97B
:10236000CDE700BFE1290020D9290020FD1E07008C
:102370003D1D07005C29002098290020D8A60700F1
:10238000FD2307002D1D07009C290020351D070097
:10239000DC29002008B50122154B1A70154B18884E
:1023A0004FF6FF7398420BD01321FFF791FC20B931
:1023B00006F05EF9C0B9002008BDFEF7D3F8F7E7D4
:1023C0000D4B1B78002BF3D0FFF780FC48B94FF47E
:1023D00080424FF0A043C3F808250022064B1A7034
:1023E000E6E7FEF7BFF8F2E7FEF7BCF8E3E700BF69
:1023F000E129002044260020CC290020F0B589B036
:1024000005460C460B78092B2AD8DFE813F02E007E
:1024100036004C000A00180024004E0157015000FD
:102420005D01FFF7F1FA0421FFF766FC0246042183
:10243000284606F03FFB98B1FEF794F810E0FFF74E
:10244000A9FF28B9FFF70EFB50B1FFF723FB07E008
:10245000FEF788F8F6E7FFF79DFF18B9FFF71AFBBC
:1024600009B0F0BDFEF77EF8F8E701229B4B1A7029
:102470004B681A789A4B1A70F2E70222974B1A703F
:102480004B681B78012BEBD1FFF766FA0221FFF7AF
:1024900033FC02460221284606F00CFB0028DFD060
:1024A000FEF760F8DCE703228C4B1A70D8E78B4B01
:1024B0001B78022B51D0032B7FD0012BD0D104AA43
:1024C00000230493059306930793854909788DF8B3
:1024D00010100393032301930292237A0C2B08D04C
:1024E0000322012106F0E6FA0028B9D0FEF73AF8F7
:1024F000B6E7636859789A78120442EA012219789B
:102500000A43D97842EA0162059259799A7912040C
:1025100042EA012219790A43D97942EA0162069214
:10252000597A9A7A120442EA0122197A0A43DB7A2A
:1025300042EA0363079301A8FFF754F900288FD0FC
:102540000121FFF7D9FB02460121284606F0B2FA25
:10255000002885D0FEF706F882E7097A11F0030615
:1025600010D0C6F104060022174600E01A468B1868
:10257000DBB26068C754531C9E42F7D101310A4454
:10258000D1B221720123049363680693237A9B08D6
:10259000059304A8FFF704FA00283FF461AF022175
:1025A000FFF7AAFB02460221284606F083FA00281C
:1025B0003FF456AFFDF7D6FF52E7087A10F0030F4D
:1025C0000AD003221146284606F074FA00283FF488
:1025D00047AFFDF7C7FF43E70190424900F0A2F87B
:1025E000014618B12846FFF7E7FB39E7019A616811
:1025F0003C4B186806F09FFE019800F003F9014675
:1026000018B12846FFF7D8FB2AE701A9354800F0A2
:1026100009F9014618B12846FFF7CEFB20E704234D
:102620000493019B9B0805932E4B1B68069304A8FB
:10263000FFF746F9064648B92B4A237A11680B443E
:102640001360284B1A68294B1A6009E709280AD039
:10265000244B186800F094F8014610BB3146284618
:10266000FFF7AAFBFCE6217A1F4B1A681144196098
:102670001F4B1B78002B3FF4F3AE1E4A1388013B1F
:102680009BB21380002B7FF4EBAE284606F0D6F900
:1026900020B9194B1A88174B1A80E1E6FDF762FF43
:1026A000F7E72846FFF788FBD8E70122104B1A709E
:1026B0008B88114A13800F4A1380D1E600230C4AFD
:1026C00013700D4A1380CBE6074B196806F078F9B2
:1026D00000283FF4C5AEFDF745FFC1E6D92900202B
:1026E000E2290020E8290020D0290020E429002048
:1026F000D8290020D6290020D42900200020064B0C
:102700001870064B064A1A6008225A609860D86012
:102710001861586198617047EC290020102B002047
:10272000F029002039B30B4600220A60134A526890
:102730000AB904207047202801D90C20704710B432
:102740000E49013A4A60CA680132CA600A6902EB5E
:10275000C204086800EB84001860012303FA02F049
:102760008B6903438B61013202F007020A6100208A
:102770005DF8044B70470E20704700BF102B0020FF
:102780001F4B996809B90420704770B45C69661AD8
:1027900006F007061D68334603EBC30205EB820211
:1027A000904206D0013303F007039C42F4D110207D
:1027B00008E0134C012202FA03F0A2694240A26130
:1027C0001C4600200E4B9D69012303FA06F62E429B
:1027D00014D10B4B5B68013404F00704012202FAA8
:1027E00004F42C40013901332CB90029FAD1044AF0
:1027F0009160536002E0024A9160536070BC704780
:10280000102B0020064A1369013B03F007031268EE
:1028100003EBC30302EB830318620020704700BF81
:10282000102B0020E8B130B40446E1B10F4BDB6857
:1028300013B9042030BC70470C4A013BD360936845
:1028400001339360536903EBC305106800EB850007
:102850002060006A0860013303F007035361002021
:10286000E8E70E2070470E20E4E700BF102B0020A1
:1028700008B5C3681B6833B10A46C168C3681B68E2
:1028800049681046984708BDC0B2887200234B7251
:10289000704730B585B0027AD2B2C368D5009C6863
:1028A0006319597949088DF8051054F832100291CE
:1028B00019798DF80610997911F0010F11D0597915
:1028C00011F0010F0DD1C4680132247BA24208DA55
:1028D000C268083592682A4452795208B2EB510F07
:1028E00012D05A7902F001028DF8042000220392DE
:1028F0008DF807209A7902F00102520101A91030E7
:1029000001F078F805B030BDC3689A685319525980
:1029100003921A798DF807205A7902F00102002AF1
:1029200014BF022203228DF804209A7902F00102DA
:102930005201037A0133DBB20372DFE7F0B583B0F3
:1029400004460F460025012620E06379DBB2A27918
:10295000D2B293422BD0226852F823200133DBB24B
:102960002179994238BF00236371E260E7689DF8DE
:102970000700FEF7ADFBC7B125722046FFF789FFC0
:10298000014690B12046FFF773FF37468DF8075098
:102990000DF10700FEF770FB002FD6D1E368002B86
:1029A000D3D09DF80700FEF793FB03B0F0BD2A4695
:1029B000DBE710B50C460378BBB90B7A0133DBB209
:1029C000CA68127B9A4208D800212046FFF750FFC0
:1029D00001212046FFF7B2FF10BD0B720846FFF73A
:1029E00058FF01460028F0D110BD0321EDE700009B
:1029F0002DE9F04104461746984600F110050346BC
:102A00000A4A284600F000FE064610B13046BDE8EE
:102A1000F081284600F09CFFC4F800802771002355
:102A20006371A3716372E360F0E700BFB32907002D
:102A300010B50446103000F0B9FF0023E36010BD6C
:102A400030B583B004460D4602A8002300F8013DCE
:102A5000FEF712FBA379DBB222799A4218D0627991
:102A6000013A934217D0226842F823500133DBB277
:102A700022799A4238BF0023A3719DF80700FEF720
:102A800027FB00212046FFF759FF002003B030BD8F
:102A90006279002AE3D19DF80700FEF719FB1120A7
:102AA000F4E70000F0B585B004460F4616461D4613
:102AB00004A8002300F8103DFEF7DEFA637AD3B9CC
:102AC000012363729DF80000FEF702FB0E4B00939A
:102AD000019402978DF80C6069462046FFF7B0FF1D
:102AE000034668B9637A1BB1002DFBD0A847F9E70C
:102AF000A37ADBB204E09DF80000FEF7E9FA1123A7
:102B0000184605B0F0BD00BF89280700F8B5447924
:102B10004C4B03EB44131B7E0BB10820F8BD00297E
:102B200078D06301474DEA500B7B012B0D784FF0B5
:102B3000010303FA05F34FF0A04594BFC5F80C3527
:102B4000C5F808350B7803F5E07301264FF0A04572
:102B500045F823604B78FF2B60D01D469E404FF018
:102B6000A047C7F80C6503F5E073032647F8236018
:102B70008B78FF2B55D01E4603F5E0734FF0000E07
:102B80004FF0A04747F823E0CF78FF2F0CD0012368
:102B9000BB404FF0A047C7F80835CB7803F5E0738A
:102BA0004FF0030E47F823E0CF7890F805E0254B6F
:102BB00003EB4E139F7603680F78C3F80875C3F8CC
:102BC0000C55C3F810658D68C3F824554D7B00354E
:102BD00018BF01250E7B022E29D0032E2AD0012EEC
:102BE00022D0C3F854554D79C3F8C0552AB34222B8
:102BF000C3F804230722C3F80025097990F90400DB
:102C000001F03AF90F4B03EB4414002060760123E6
:102C10002376F8BD0C4901EB041182E74FF0FF3534
:102C2000A6E74FF0FF36AFE745F00205D9E745F0DC
:102C30000405D6E745F00605D3E70722C3F80025CB
:102C4000E0E700BF2C2B0020E0A60700F0B5447998
:102C5000474B03EB44135B7E0BB11120F0BD0646DE
:102C60000D4696466301424AD35833B11EF0140F05
:102C700003D102EB441301225A763D4F07EB441770
:102C800007F1080C95E80F008CE80F007B7F03F03C
:102C9000FE036FF341037B77BA7EFF2A05D0012341
:102CA00093404FF0A042C2F80C352B685BB103F0A3
:102CB0006042B2F1005F06D02D4B03EB44140023B9
:102CC00063761020F0BDAA6822B102F06042B2F132
:102CD000005FF1D132682979C2F84435C2F848154D
:102CE0002B7BA968C2F83415C2F838350023C2F826
:102CF0001831C2F804311EF0010F14BF0123002364
:102D0000C2F850351EF0020F14BF01230023C2F891
:102D100040351EF0080F04BF0123136163011449FD
:102D2000CB5853B11EF0040F4FF0420314BFC2F84A
:102D30000833C2F804330020F0BDD2F81831002B5C
:102D4000FBD001235361D2F80431002BFBD0084B98
:102D500003EB4414A37EFF2B08D0012202FA03F3F5
:102D60004FF0A042C2F808350020F0BD0020F0BDB1
:102D70002C2B002000B585B0009102938DF8042023
:102D80009DF818308DF80C3000226946FFF75EFF81
:102D900005B05DF804FB000008B54FF04023D3F800
:102DA000183103B908BD00224FF04023C3F81821A1
:102DB000094B9A7EFF2A05D0012393404FF0A04291
:102DC000C2F80835044B00225A76184600F8042F42
:102DD0001B689847E6E700BF2C2B002038B5674BEF
:102DE000DB7E0BB1082038BD002800F0AA80447FAC
:102DF000624B1C77036801229A404FF0A043C3F84E
:102E00000825026802F5E072032543F82250426863
:102E100002F5E072002543F82250002C37D1826978
:102E2000574BC3F82425427D047D2243C3F86C250B
:102E300004684268C3F80C45C3F81425037D012BD0
:102E400051D04E4B596002691A6079B1017F1B7FE6
:102E5000002B63D100234B4A1360283213604A4A87
:102E6000474BC3F80423022001F006F8434B1B7FB5
:102E7000002B61D00822424BC3F800253F4B0020B5
:102E8000D875187698750122DA76987638BD8269F9
:102E90003B4BC3F82425427D047D2243C3F86C25B7
:102EA00004684268C3F80C45C3F81425037D012B60
:102EB000C7D182684FF0A04302F5E07243F8225078
:102EC000C4680122A240C3F80825C26802F5E07276
:102ED000032443F82240C4688268294BC3F808459C
:102EE000C3F81025ADE782684FF0A04302F5E07209
:102EF000002443F82240C4680122A240C3F80825F8
:102F0000C26802F5E072032443F82240C468826874
:102F10001B4BC3F80845C3F8102592E700231B4A52
:102F20001360103213600432136020321360184AA9
:102F3000134BC3F8042396E70422114BC3F8002572
:102F40009CE701220D4B1A774FF0A0430422C3F8EF
:102F500008250322C3F808270020C3F80C07084BF4
:102F60004FF0EB74C3F82445C3F86C050220C3F896
:102F70000C05C3F81425074863E700BF4C2B00205D
:102F8000002000401C210040800002001021004071
:102F900010030200F0A6070030B4494B1B7F002B42
:102FA0006CD0030C1B04B3F1005F6DD0102030BC5B
:102FB00070474448444903680A681BB9002AFAD09C
:102FC0000F2003E0002A0CBF00200F2000223C4B02
:102FD0009A75ECE7938A9BB2B3F5807F0CD1938A04
:102FE0009BB283421AD20B68002BF3D1938A9BB217
:102FF000B3F5807FF7D1EDE70D60938A9BB29068BF
:10300000C05C938A01339BB29382C4F81C0503E031
:103010002B4A2E4900252E4C907DE0E7284B9B8AB9
:103020009BB2B3F5807F0BD0284A1368002BFCD0ED
:103030000122284B1A6000200022214B9A75B6E726
:103040000F20F9E71120B2E71D4B99759860002217
:103050009A821E490A6001251F4C25600A609A8ADF
:1030600092B2815C9A8A2A4492B29A82184AC2F831
:103070001C155B68002BCBD0002098E7104B9B7D84
:10308000002BE1D0112092E70D4B9B7D002BD9D175
:103090000B4B9975986000229A820A4C2260383452
:1030A00022600B4AC2F84405C2F8481501210832D3
:1030B00011605B68002B3FF47CAF002077E700BF16
:1030C0004C2B002020210040582100401C210040B2
:1030D000002000400C20004008200040F0B57D4B4F
:1030E0001B7F002B6BD0020C1204B2F1005F00F0CA
:1030F00081801020F0BD4FF40175774CC4F808535F
:1031000061E04FF40172744BC3F804231120F0BD49
:10311000724D734C73482A68216803683AB931B913
:10312000002BF8D000226B4BDA750320F0BD002095
:10313000684AD0750BB10320F0BD814218BF0F2043
:10314000F0BD0022664B1A60664E674C1D46614B0F
:103150009646614F10E0002840F0B780002A40F00A
:103160008F80DA7DBAB9C4F800E0D7F818255A7E06
:10317000D2B2D97D914278D9306821682A68002975
:10318000E9D1002A40F09F800028F5D00022514B61
:10319000DA750320F0BDC4F800E05A7ED2B2D7F849
:1031A0001805D96888545A7E0132D2B25A76DEE7C1
:1031B0000122494B1A600020F0BD1120F0BD454AA4
:1031C0005268002A97D1434CE47DFCB9414AD1753D
:1031D000D060002454761476002B5CD13D4B9B7E4E
:1031E0003BBB00233F4A13601C3A136001223A4B59
:1031F0001A601EE0374A526822B14FF40475364C0B
:10320000C4F80853334CE47D002C3ED0314C247E6E
:103210005CB1002AD1D0002B3FF473AF4FF404729D
:103220002D4BC3F804231120F0BD2A4A10611176FA
:1032300053B9284B5B68002B83D04FF40172264BA7
:10324000C3F804230020F0BD0023244A1360343265
:103250001360214BC3F83405C3F83815D3F80022A6
:1032600042F02002C3F8002221E01A4B0022DA7556
:103270009B7E002B9CD101221C4B1A600020F0BDCC
:103280000022144BDA750F20F0BD124BD975D860AF
:1032900000225A761A760023104A136034321360E3
:1032A0000D4BC3F83405C3F8381501221A60094BD9
:1032B0005B68002B3FF42CAF4FF40472064BC3F84D
:1032C00004230020F0BD0028DAD00022014BDA757B
:1032D0000320F0BD4C2B00200020004010210040B6
:1032E00044210040242100400821004004200040E7
:1032F00030B585B09D4B1B7F002B5CD19C4BD3F828
:10330000043313F4007F00F0E4809A4B1B68002B19
:1033100000F0DF800022974B1A604FF40172A3F592
:103320009273C3F80823914B9B7E13B90122924BF1
:103330001A6002238DF800308D4AD2F88034C2F82A
:1033400080340393894BDA7D8DF80820DA68019286
:103350000022DA751A765A68196868469047874BD2
:103360001B68ABB1814A938A9BB2927D9A4240F22C
:1033700022810022814B1A607C4A938A9BB2916819
:10338000C95C938A01339BB29382794BC3F81C15B5
:103390007B4B1B686BB10022794B1A60734B9B7E91
:1033A00013B10122724B1A60704BDB7D002B40F091
:1033B000178105B030BD6F4B1B68002B2BD1714BB3
:1033C0001B68002B40D000226E4B1A60A3F5887357
:1033D000D3F83C35DBB2654AD27D9A4234D1634A98
:1033E000117E002955D0D568614CD4F8000220F038
:1033F0002000C4F80002D1751169D1600021117656
:1034000001218DF800108DF808300195536811687E
:103410006846984718E00022564B1A6002238DF840
:103420000030534BD3F88014C3F880140391D3F8C1
:103430003C358DF808304D4BD9680191DA751A7614
:103440005A681968684690474D4B1B6833B1002293
:103450004B4B1A60454BDB7D002B29D14A4B1B6837
:10346000002BA6D00022484B1A60404B9B7D002BBE
:103470009FD03F4BD3F84C358DF800208DF80830A5
:103480003A4B996801919A755A681968684690474D
:103490008FE7364A0021D175D16801208DF80000F0
:1034A0008DF8083001915368116868469847CBE75A
:1034B0002E4BDA752E4AD2F83C15DA6801208DF8C9
:1034C00000008DF8081001925A6819686846904704
:1034D000C4E7274BD3F8043313F0040F3FF43FAF96
:1034E0002A4B1B68002B3FF43AAF204BDB7D002BAF
:1034F0002CD10022254B1A60A3F58473D3F818351C
:103500001A4A537EDBB2D27D9A427FF428AF174B22
:103510001A7E002A3CD1154B9B7E13B90122164B13
:103520001A604FF40172124BC3F808230F4B0022AC
:10353000DA75597EDA6801208DF800008DF80810E0
:1035400001925A6819686846904708E700220F4BB5
:103550001A60064A537EDBB20549D1F81805D168D6
:10356000C854537E0133DBB25376C9E74C2B00209D
:103570000020004024210040042000401C21004085
:10358000442100401021004020210040082100403B
:10359000D968587EDA751A69DA6000221A765A7686
:1035A00001228DF800208DF8080001915A681968F1
:1035B00068469047D3E60022114B1A60114B9B7D61
:1035C000002B3FF4E5AE8DF800208DF808300D4B50
:1035D000996801919A755A68196868469047D7E6C4
:1035E000084B0022DA75597EDA6801208DF8000058
:1035F0008DF8081001925A68196868469047D8E615
:103600001C2100404C2B0020F8B50646047904EB41
:103610008405044800EBC50090F8220020B1082082
:10362000F8BD00BF6C2B0020002900F08881874F77
:1036300004EB8405ED0078197A5143600023836020
:1036400080F8253080F824300A684FF0A04302F556
:10365000E07240F20C6043F822004A6802F5E07222
:1036600043F822000122086802FA00F0C3F80805B6
:1036700048688240C3F808250A6802F5E07240F203
:103680000D6043F822004A6802F5E07243F8220018
:103690000420013800BF00BF00BF00BF00BF00BF53
:1036A00000BF00BF00BF00BF00BF00BF00BF00BF22
:1036B00000BF00BF00BF00BF00BF00BF00BF00BF12
:1036C00000BF00BF00BF00BF00BF00BF00BF00BF02
:1036D00000BF00BF00BF00BF00BF00BF00BF00BFF2
:1036E00000BF00BF00BF00BF00BF00BF00BF00BFE2
:1036F00000BF00BF00BF00BF00BF00BF00BF00BFD2
:1037000000BF00BF00BF00BFC3D1D3F810354A6867
:10371000D34013F0010F40F0E48000224FF0010E7F
:103720004FF0A04504270B680EFA03F3C5F80C35DB
:103730003846013800BF00BF00BF00BF00BF00BF58
:1037400000BF00BF00BF00BF00BF00BF00BF00BF81
:1037500000BF00BF00BF00BF00BF00BF00BF00BF71
:1037600000BF00BF00BF00BF00BF00BF00BF00BF61
:1037700000BF00BF00BF00BF00BF00BF00BF00BF51
:1037800000BF00BF00BF00BF00BF00BF00BF00BF41
:1037900000BF00BF00BF00BF00BF00BF00BF00BF31
:1037A00000BF00BF00BF00BFC3D10B680EFA03F318
:1037B000C5F808353846013800BF00BF00BF00BF5C
:1037C00000BF00BF00BF00BF00BF00BF00BF00BF01
:1037D00000BF00BF00BF00BF00BF00BF00BF00BFF1
:1037E00000BF00BF00BF00BF00BF00BF00BF00BFE1
:1037F00000BF00BF00BF00BF00BF00BF00BF00BFD1
:1038000000BF00BF00BF00BF00BF00BF00BF00BFC0
:1038100000BF00BF00BF00BF00BF00BF00BF00BFB0
:1038200000BF00BF00BF00BF00BF00BFC3D1013257
:10383000092A0DD0D5F810054B6820FA03F313F0D0
:10384000010F3FF470AF002A4BD001E06C2B002039
:1038500001234A6803FA02F24FF0A045C5F80C258F
:103860000420013800BF00BF00BF00BF00BF00BF81
:1038700000BF00BF00BF00BF00BF00BF00BF00BF50
:1038800000BF00BF00BF00BF00BF00BF00BF00BF40
:1038900000BF00BF00BF00BF00BF00BF00BF00BF30
:1038A00000BF00BF00BF00BF00BF00BF00BF00BF20
:1038B00000BF00BF00BF00BF00BF00BF00BF00BF10
:1038C00000BF00BF00BF00BF00BF00BF00BF00BF00
:1038D00000BF00BF00BF00BFC3D14A689340C5F816
:1038E00008350B684FF0A04203F5E07340F20C601E
:1038F00042F823004B6803F5E07342F82300336875
:1039000008684A68C3F80805C3F80C258A68C3F834
:10391000242504EB84030C4A52F833302BB1306871
:10392000097B40F3073000F0A7FA04EB8404064B50
:1039300003EBC404012384F822300020F8BD0349BE
:1039400001EB041173E600BF6C2B002010A70700E9
:10395000037902680621C2F8001503EB8303034ACA
:1039600002EBC303022283F8222070476C2B002055
:1039700030B4047901680C4BA200151903EBC5059E
:103980000020A8604FF0FF35C1F80853D1F800526D
:10399000C1F80002C1F80005224403EBC203012272
:1039A00083F8222030BC70476C2B002010B50479BE
:1039B00004EB84020D4B53F8323063B103681B0BE8
:1039C0005AB2520903F01F03012101FA03F3203216
:1039D000074941F82230FFF7CBFF04EB8404034B87
:1039E00003EBC404002384F8223010BD6C2B0020AC
:1039F00000E100E04B6803F06043B3F1005F01D0E9
:103A000010207047F0B50C461546037906684FF054
:103A1000FF32C6F8082303EB8301904A02EBC10290
:103A200092F824203AB18D4A02EBC1039B68C6F894
:103A300004331120F0BD15F0140F0CBF012100213B
:103A400003EB8307854A02EBC70787F8241007F1C9
:103A50000C0E94E807008EE80700C5F3001287F803
:103A600025206278C6F888250022C6F80421C6F809
:103A7000242115F0010F14BF01220022C6F85025A1
:103A800015F0020F14BF01220022C6F8402522784B
:103A9000032A00F2BC80DFE802F074A13602A268BB
:103AA00002F06042B2F1005F01D01020F0BD4FF48F
:103AB0008072C6F80022A2786168C6F84415C6F87C
:103AC00048250022C6F85021C6F86021C6F84821D2
:103AD00001223262B260D6F85021002AFBD00020C9
:103AE000C6F85001E278A168C6F84415C6F8482522
:103AF00003EB8301594A02EBC102594991604FF42B
:103B0000827108221BE0A2786168C6F84415C6F8E5
:103B10004825E278A168C6F83415C6F838254FF470
:103B20008452C6F8002203EB83024C4901EBC20227
:103B300040F2022191604FF482710822002015F0BA
:103B4000080F04D12478032C1CBF0124B45003EBCC
:103B50008302424C54F83220002A5DD015F0040F45
:103B600006D003EB830204EBC2024FF400719160B4
:103B700003EB8303394A02EBC3039B68C6F80433A3
:103B8000F0BDA2786168C6F84415C6F8482515F05E
:103B9000200F14D04FF48072C6F8002203EB83018B
:103BA0002E4A02EBC1022E4991600022C6F848213C
:103BB0004FF4A4710122326208220020BFE74FF4C3
:103BC0000072C6F8002203EB8301244A02EBC10213
:103BD00040F2022191604FF48271EBE7A2786168B4
:103BE000C6F83415C6F838254FF48052C6F80022BE
:103BF00003EB8302194901EBC20240F202219160FA
:103C0000012232624FF482710022104697E74FF48E
:103C100082710822072092E7002701244FF4827561
:103C200031440A684AB9D6F82421002AF9D0C6F8E6
:103C30002471346274612946F2E7D6F8C414C6F8D8
:103C4000C41403EB8303054A02EBC303002283F889
:103C50002420914218BF0320F0BD00BF6C2B002030
:103C6000000204005C4BD3F82431A3B15A4B00226C
:103C7000C3F82421D3F804316BB9584A9168564BE4
:103C8000C3F80813022191609268C3F8042301224B
:103C90001A625A61704710B584B04F4BD3F80431A3
:103CA000002B54D000224C4BC3F804214B4C04F1A0
:103CB0000C0393E8070004AB03E9070094F82330F2
:103CC000002B7DD0237B012B36D0434AD2F84C25E4
:103CD0008DF80620022B35D03F4BD3F84C35DBB2A4
:103CE0008DF807303C4B0022C3F86021C3F85C21FB
:103CF000394B0022C3F8002238498A604FF0FF3266
:103D0000C3F80823344AD2F8C434C2F8C43413F0D8
:103D1000020F4DD001238DF80030304B93F8253041
:103D20001BB900222D4B83F824202C4B1A685968AC
:103D30006846904704B010BD274BD3F83C358DF84A
:103D40000630C9E7244BD3F83C35DBB2C8E7002284
:103D5000214BC3F84821214B1B7BABB91F4C04F10D
:103D60000C0393E8070004AB03E9070094F825303F
:103D7000002BC7D1184B0022C3F80022A2604FF0DD
:103D8000FF32C3F80823BDE7134B4FF40072C3F8AA
:103D90000022124A40F2022191604FF0FF31C3F835
:103DA00008139268C3F8042301229A601A62C1E7DB
:103DB00013F0040F14BF022300238DF80030ACE78A
:103DC000054B0022C3F86021C3F85C21034B93F834
:103DD0002530002B8CD095E7003000406C2B002064
:103DE00082B00190019B002B44D040F2E732019B4E
:103DF000013B01931046013800BF00BF00BF00BF68
:103E000000BF00BF00BF00BF00BF00BF00BF00BFBA
:103E100000BF00BF00BF00BF00BF00BF00BF00BFAA
:103E200000BF00BF00BF00BF00BF00BF00BF00BF9A
:103E300000BF00BF00BF00BF00BF00BF00BF00BF8A
:103E400000BF00BF00BF00BF00BF00BF00BF00BF7A
:103E500000BF00BF00BF00BF00BF00BF00BF00BF6A
:103E600000BF00BF00BF00BF00BF00BFC3D1019BA8
:103E7000002BBCD102B07047002815DB4901C9B244
:103E800000F1604303F5614383F8001300F01F0263
:103E9000012393404009800000F1604000F561403B
:103EA000C0F880310360704700F00F024901C9B2C9
:103EB000014B9954EAE700BF14ED00E029DF704799
:103EC00028DF704730B583B00A464B690C4614F8BA
:103ED0000C1BD56852680092034A52F825500246DE
:103EE0002046A84703B030BD942B002070B51C4B72
:103EF0001C7804EB440203EBC2035D691B79012BC0
:103F000003D0032B20D00F2019E0154B6600321987
:103F100003EBC20291691348006800039268121A09
:103F20000144344403EBC403DB681D442844B2F568
:103F3000805F34BF92084FF48062FFF7BFFF10B973
:103F40000122074B9A7070BD4FF08053186980B200
:103F5000B5FBF0F5034B18682844FFF7B1FFEEE717
:103F6000A02B0020982C0020F8B5154C64780A2C62
:103F700024D0134D2D782C44E4B2092C84BF0A3C84
:103F8000E4B20F4F65002E1907EBC6063071B2611F
:103F900006F1100203C982E80300B360069BF360D8
:103FA000BB782BB10020064A537801335370F8BD1B
:103FB000FFF79CFF112808BF0020F4E70420F8BD9C
:103FC000A02B0020314B9B78002B5DD070B50022D8
:103FD0002E4B9A70022802D0032836D070BD2B4A8F
:103FE00014782B490B6801330B6004EB440102EB9E
:103FF000C1029268B2EB033F32D80022244B1A6010
:10400000224A5378013B5370631CDBB2092B84BFF7
:10401000A4F109031D4A13701C4E6500291906EB13
:10402000C10104310020FFF74DFF2B1906EBC3033C
:1040300000221A719A60032119615A619A61DA604B
:1040400073780BB1B3787BB170BD10490B7803EB7B
:10405000430301EBC30104310D20FFF733FF70BDB3
:104060000A4B5B78002BEFD0FFF740FF1128EBD015
:104070000028E9D005490B7803EB430301EBC301AA
:104080000431FFF71FFF70BD704700BFA02B002059
:10409000982C002000230D4A13600D490B704B70C3
:1040A0008B700B46F031002203201A719A60186160
:1040B0005A619A61DA6018338B42F6D10020054BC1
:1040C0001860054B1860586098607047982C002065
:1040D000A02B0020942C0020942B0020074B1B6861
:1040E000032B09D00B60591C044A11600168044A73
:1040F00042F823100020704704207047942C0020C1
:10410000942B002010B582B0CC180C4314F0030F90
:1041100002D0102002B010BD1C4613460A460146CC
:1041200000940120FFF720FFF4E700B583B00022E0
:1041300000920B4601460320FFF716FF03B05DF81F
:1041400004FB000080B582B000AF1F4B7B607B6832
:1041500002221A617B6802225A617B681B4A9A61BB
:104160007B681B4ADA617B684FF480621A627B6865
:1041700000229A627B6800225A627B680022DA621F
:104180007B68124A9A647B68124ADA647B68102260
:104190001A657B6800229A657B6800225A657B68F5
:1041A0000022DA657B6807330B49184605F02EF9C3
:1041B0007B680A49184605F029F97B6820229A7124
:1041C00000BF0837BD4680BD003B002020A7070088
:1041D0009C2C00209C3000202CA7070030A7070053
:1041E00080B588B000AFF860B9607A600023BB6129
:1041F000FB68DB687B61FB681B693B613A697B6933
:104200009A4205D93A697B69D31A013BFB6107E001
:10421000FB689A6839697B69CB1A1344013BFB61DF
:10422000FB689A687B69D31AFA69934228BF1346E0
:10423000FB61FA697B68934228BF1346FB61FB6808
:104240005A687B691344FA69B968184605F073F82F
:10425000BA69FB691344BB61BA68FB691344BB606C
:104260007A68FB69D31A7B607A69FB6913447B61C6
:10427000FB689A687B699A4201D100237B61FB68E5
:104280007A69DA607B68002BB5D1BB6918462037A4
:10429000BD4680BD80B588B000AFF860B9607A6077
:1042A000FB68DB68FB61FB689A68FB69D31ABB613A
:1042B000BA697B689A420ED9FB685A68FB69134455
:1042C0007A68B968184605F036F8FA697B681A44C6
:1042D000FB68DA601AE0BB697B61FB685A68FB69BE
:1042E00013447A69B968184605F025F87A68BB69FD
:1042F000D31A7B61FB685868BA68BB6913447A6952
:10430000194605F018F8FB687A69DA6000BF2037B3
:10431000BD4680BD80B487B000AF78607B681B6904
:104320003B617B68DB68FB603A69FB689A4208D8AE
:104330007B689A68FB68D21A3B691344013B7B6136
:1043400004E03A69FB68D31A013B7B617B6918463C
:104350001C37BD465DF8047B7047000080B588B00F
:1043600000AFF860B9607A60BB68BB61FB685A1C3B
:1043700013465B001344DB001E4A13447B617B69D8
:104380005B69012B17D0012B02D3022B23D029E02C
:104390007869FFF7BFFF38613A697B689A4202D2B9
:1043A0000023FB6121E07B68FB617A68B969786969
:1043B000FFF770FF19E07869FFF7ACFF38617A68A2
:1043C0003B69934228BF1346FB61FA69B969786972
:1043D000FFF760FF09E07A68B9697869FFF700FFC5
:1043E000F86102E00023FB6100BFFB69184620373B
:1043F000BD4680BD003B002080B586B000AFF860B0
:10440000B9607A600D4B1B78532B01D0FFF79AFEF1
:10441000EFF311834FF0800181F311883B617A68DB
:10442000B968F868FFF79AFF78613B6983F31188F0
:104430007B6918461837BD4680BD00BF003B002091
:1044400080B584B000AF78603960386804F0E6FF6A
:10445000F860FA6839687868FFF7CEFF03461846B7
:104460001037BD4680BD000080B586B000AFF86053
:10447000B9607A603B60304B1B78532B01D0FFF75B
:1044800061FE2D4B1B691A46FB689A424CD9EFF32B
:1044900011834FF0800181F311883B61FB68002B91
:1044A00032D02549FB685A1C13465B001344DB00DD
:1044B0000B44BA681A602049FB685A1C13465B001B
:1044C0001344DB000B4404337A681A601A49FA6813
:1044D00013465B001344DB000B4420333A681A6038
:1044E0001549FA6813465B001344DB000B4428337C
:1044F00000221A601049FA6813465B001344DB007F
:104500000B44243300221A600B49FA6813465B00FF
:104510001344DB000B442C333A6A1A603B6983F383
:10452000118800237B6102E04FF0FF337B617B69E0
:1045300018461837BD4680BD003B002080B586B0C8
:1045400000AFF860B9607A603B60304B1B78532B4A
:1045500001D0FFF7F7FD2D4B5B691A46FB689A42C5
:104560004BD9EFF311834FF0800181F311883B6148
:10457000FB68002B31D02549FA6813465B001344D1
:10458000DB000B444833BA681A602049FA681346C6
:104590005B001344DB000B444C337A681A601B4900
:1045A000FA6813465B001344DB000B4450333A684F
:1045B0001A601649FA6813465B001344DB000B448B
:1045C000583300221A601149FA6813465B001344FD
:1045D000DB000B44543300221A600C49FA6813467E
:1045E0005B001344DB000B445C333A6A1A603B699E
:1045F00083F3118800237B6102E04FF0FF337B617E
:104600007B6918461837BD4680BD00BF003B0020BF
:1046100010B58268531C4468A34205D80468A154AD
:104620008360C3680133C360826843689A4200D0E4
:1046300010BD044601680069FFF7DEFEA3689842DA
:1046400003D04FF0FF33E36010BD0023A360EFE71A
:104650002DE9F84F80460F4616461D46DDF828A086
:104660000B9AB1422AD30B464FF00109B3FBF6F384
:1046700009F101099E42F9D9A94538BFA94612F0AE
:10468000010B22D1BAF1000F1FD012F0020F1AD085
:10469000002D14BF20243024CA4516D90AF1FF3A50
:1046A00021464046FFF7B4FFD8F80C30002B08DB5A
:1046B000BAF1000F0DD0D145F0D10AE04FF0010959
:1046C000DAE7BDE8F88F2024E6E7D8F80C30002BB5
:1046D00035DB012405E0B7FBF4F39E4205D806FB69
:1046E00004F4012DF7D9013DF9E7194DB7FBF4F3B7
:1046F00004FB1377E95C4046FFF78AFFD8F80C30DB
:10470000002B03DBB4FBF6F4002CEFD1BBF1000F60
:1047100015D0BAF1000F14D0D14538BF202414D2DF
:104720000AF1FF3A21464046FFF772FFD8F80C30F5
:10473000002B08DBBAF1000F01D0D145F0D1BDE864
:10474000F88FBDE8F88FBDE8F88FBDE8F88F00BF9F
:1047500038A707002DE9F04F9BB003900D46914616
:1047600005AB1593402316930023179319901893C4
:10477000DFF8D0A2C0E0002602E046F001060135D5
:104780002B78233B0D2B2BD801A252F823F000BF2E
:10479000D9470700E1470700E1470700E147070065
:1047A000E1470700E1470700E1470700E14707004D
:1047B000D1470700E14707007B470700E1470700B3
:1047C000E1470700C947070046F002060135D7E771
:1047D00046F004060135D3E746F008060135CFE779
:1047E0002B78A3F13002D2B2092A12D8002404EBAC
:1047F000840403EB4403A3F1300415F8013FA3F153
:104800003002D2B2092AF2D92E2B04D000272B78FD
:104810001DE00024F8E7691C6B78A3F13002D2B2E6
:10482000092A0FD8002707EB870703EB4703A3F1FB
:10483000300711F8013FA3F13002D2B2092AF2D9B0
:104840000D46E4E70D460027E1E715F8013B03F0CC
:10485000FB02682AF9D0642B5AD013D9732B00F0CD
:10486000CD801AD9752B29D1D9F800301A1DC9F875
:1048700000201968019600943B460A2215A8FFF70C
:10488000E7FE34E0582B1BD0632B27D0252B2ED1ED
:10489000252115A8FFF7BCFE29E0702B27D1D9F8F8
:1048A00000301A1DC9F8002019680023019308235D
:1048B0000093102215A8FFF7CBFE18E0782B16D135
:1048C000D9F800301A1DC9F8002019680196009423
:1048D0003B46102215A8FFF7BBFE08E0D9F80030D0
:1048E0001A1DC9F80020197815A8FFF791FE0135A7
:1048F000189B002BC0F2948015F8011B002900F0D2
:104900008F8025293FF437AF15A8FFF781FEEFE729
:10491000D9F800301A1DC9F80020D3F800B08BEA8E
:10492000EB73A3EBEB73092B33DD4FF001088AFB2C
:104930000312DB17C3EBA20308F10108092BF6DC15
:10494000B84538BFB84634B1BBF1000F02DB16F0F2
:10495000040F00D0013C16F0020F00D01FB116F07A
:10496000010F00D1C4B9189B002BC0DBBBF1000FB5
:1049700021DB16F0040F25D106F00303022B29D00A
:10498000019600943B460A22594615A8FFF760FE9F
:10499000ADE74FF00108D3E7A045E4D2013C202168
:1049A00015A8FFF735FE189B002BA0DB002CDDD0EF
:1049B000A045F3D1DAE7CBF1000B2D2115A8FFF7C5
:1049C00027FE03E02B2115A8FFF722FE189B002BE2
:1049D000D2DA8CE7002FD3D1002CD1D0A045CFD292
:1049E000013C302115A8FFF713FE189B002BFFF6A2
:1049F0007EAF002CC4D0A045F2D1C1E7D9F8003079
:104A00001A1DC9F800201C6814F8011B00293FF486
:104A10006EAF15A8FFF7FCFD189B002BF4DA66E7D4
:104A2000189B002B05DD179A3AB9179A189B134467
:104A3000189318981BB0BDE8F08F05A90398FFF7ED
:104A4000DBFCF2E7676666660EB400B582B003ABC6
:104A500053F8041B02AA42F8043DFFF77BFE02B0A4
:104A60005DF804EB03B07047104B1B780BB10020CE
:104A7000704700B583B0012300934FF480630C4A64
:104A80000C490020FFF7F0FC18B1082003B05DF8D6
:104A900004FB00901023084A0849FFF74FFD08B1B6
:104AA0000820F3E70122014B1A70EFE7BC34002025
:104AB000BC30002048A70700AC30002050A70700FA
:104AC0000EB400B582B003AB53F8041B02AA42F83F
:104AD000043DFFF73FFE02B05DF804EB03B0704702
:104AE00038B510B101230B6038BD0D460968F1B12E
:104AF000104A91420CD0531A3B2B13D801F13C03BE
:104B00003D324C1E13F8010902F8010D9C42F9D107
:104B1000084C00223C212046FCF7D4FCA08700234F
:104B20002B6038BD3C22034804F005FCF0E70E235F
:104B3000F6E700BF807F0020074A6FF002039E4522
:104B400002D1EFF3098101E0EFF308818869A0F158
:104B500002000078104700BFE14A0700B0B170B50D
:104B600004460B4D00223C212846FCF7ABFC0646D0
:104B7000AB8F834201D00B2070BD3C2229462046DA
:104B800004F0D9FB0136AE87002070BD0E207047BF
:104B9000807F00204FF000524FF0A043C3F808255B
:104BA00007286DD8DFE800F00418266C3442505E08
:104BB0004FF0A0434FF40032C3F80C252022C3F875
:104BC0000C251022C3F80C2501204FF000524FF0A5
:104BD000A043C3F80C2570474FF0A0434FF40032B8
:104BE000C3F808252022C3F80C251022C3F80C2591
:104BF0000120EAE74FF0A0434FF40032C3F80C2540
:104C00002022C3F808251022C3F80C250120DCE778
:104C10004FF0A0434FF40032C3F80C252022C3F814
:104C20000C251022C3F808250120CEE74FF0A04341
:104C30004FF40032C3F808252022C3F80C251022B7
:104C4000C3F808250120C0E74FF0A0434FF400321D
:104C5000C3F80C252022C3F808251022C3F8082524
:104C60000120B2E74FF0A0434FF40032C3F808250B
:104C70002022C3F808251022C3F808250120A4E744
:104C80000020A2E710B54FF0A0444FF40033C4F861
:104C90001835C4F808352023C4F81835C4F8083589
:104CA0001023C4F81835C4F808350020FFF772FF48
:104CB0004FF00053C4F81835C4F80C3506494FF0CE
:104CC00000738B6000220A734A730448FDF71EFFCD
:104CD000B0FA80F0400910BD4C2600205C26002070
:104CE00000B583B0009313460A4601460448FEF718
:104CF00041F8B0FA80F0400903B05DF804FB00BF52
:104D00005C26002008B50620FFF744FF0120FFF7CE
:104D100067F80520FFF73EFF0220FFF761F801204A
:104D200008BD70B582B004460D4616460620FFF752
:104D300031FF03238DF80430230C8DF80530230A4E
:104D40008DF806308DF8074000231A4604210DEB3C
:104D50000100FFF7C5FF044628B90520FFF71AFF39
:104D6000204602B070BD33462A4600210846FFF7B0
:104D7000B7FF0446F1E710B582B00620FFF70AFF3F
:104D800002A8062300F8043D00231A460121FFF77C
:104D9000A7FF04460520FFF7FDFE204602B010BD28
:104DA00070B582B006460620FFF7F4FE05248DF8A4
:104DB000044002236A46012101A8FFF791FF05463E
:104DC0009DF8013033702046FFF7E4FE284602B01C
:104DD00070BD000010B584B00620FFF7DBFE012097
:104DE000FEF7FEFF90238DF8083000238DF8093080
:104DF0008DF80A308DF80B308DF80C300093ADF83B
:104E0000043006236A46052102A8FFF769FF04461D
:104E10000520FFF7BFFE14B9204604B010BD9DF871
:104E200005309DF8042005490020FFF70DFE9DF890
:104E30000440C22C14BF00240124EDE784A707001E
:104E40002DE9F04184B0804604AF002307F8013D0E
:104E50000A20FEF7C5FFFFF755FF0A20FEF7C0FF47
:104E6000032401263846FFF79BFF05463046FEF730
:104E7000B7FF9DF80F3013F0020F09D1FFF77BFF4A
:104E800005463046FEF7ACFF631E13F0FF04E9D180
:104E90000A20FEF7A5FF3DB90520FFF77BFE0024A1
:104EA000204604B0BDE8F0810DF10F00FFF778FF58
:104EB00004469DF80F3013F0020F34D000283BD089
:104EC0000120FEF78DFF0620FFF764FE28F4FF4067
:104ED00020F07F0052238DF80830030C8DF8093044
:104EE000000A8DF80A0000228DF80B2013460421D9
:104EF00002A8FFF7F5FE0520FFF74CFE0C2000F09E
:104F000013FD0DF10F00FFF74BFF04469DF80F3026
:104F100013F0010FC4D0CB23094A0A490020FFF740
:104F200093FD0024BCE7AA230093054B42460649A3
:104F30000020FFF789FDAFE70520FFF72BFEAFE765
:104F400058A70700D4A70700A0A70700F0B5C5B071
:104F5000144600238DF80F31531EDBB2FB2B12D801
:104F600005460E460244B2F5000F15D2C3B2013B0E
:104F70002344B3F5807F1BD8FFF7FDFE08BB002755
:104F8000384645B0F0BDFE2300932C4B2C49002041
:104F9000FFF75AFD0027F3E74FF481730193274B86
:104FA0000093284B28490020FFF74EFD0027E7E734
:104FB0004FF48373214A25490020FFF745FD002760
:104FC000DEE70DF20F10FFF7EBFE07469DF80F31FD
:104FD00013F0020F29D00028D2D00620FFF7DAFD07
:104FE0004FF48072002103A8FBF7B2FA02238DF878
:104FF0000C302B0C8DF80D302B0A8DF80E308DF8FF
:105000000F502246314604A804F095F9211D0023D3
:105010001A46C9B203A8FFF763FE07460520FFF74B
:10502000B9FD0C20FEF7DCFEAAE740F20F13034A9D
:1050300007490020FFF708FDA1E700BF6CA70700A4
:1050400028A80700FFFF7F0058A80700A8A80700AE
:10505000E8A8070008B50020FFF79CFD0520FEF733
:10506000BFFE0520FFF796FD1420FEF7B9FE08BD30
:10507000F8B5FFF747FE1420FEF7B2FE042401271F
:105080003C26FFF7A7FE054690B93846FEF7A8FE76
:10509000FFF7E0FF3046FEF7A3FE631E13F0FF04A8
:1050A000EFD140F25B13034A03490020FFF7CCFC29
:1050B0002846F8BD78A7070000A8070080B483B091
:1050C00000AF7860084611461A460346FB700B464F
:1050D000BB7013467B704FF0A041FA78BB785B0041
:1050E0001A437B789B001A433B7C1B021A433B7D8F
:1050F0001B041A437B6803F5E07341F8232000BFCB
:105100000C37BD465DF8047B704780B584B002AFB4
:1051100078600B46FB70FB78002B0AD100230193CB
:10512000002300930023002200217868FFF7C6FFC8
:1051300007E04FF0A04201217B6801FA03F3C2F8B7
:10514000183500BF0837BD4680BD80B483B000AFBE
:1051500078604FF0A04201217B6801FA03F3C2F8A6
:105160000C3500BF0C37BD465DF8047B704700006E
:1051700080B582B000AF7860FBF7B2FA01210C482D
:10518000FDF7ACFF0346112B0CD00A4B1B78002B0C
:1051900008D0094B1A787B681A70064B00221A70E7
:1051A000012300E0002318460837BD4680BD00BF3C
:1051B000C0340020BF340020783B002080B584B08C
:1051C00000AF7860786804F029F903461A467968D8
:1051D000134804F0B0F813490020FFF731F979685B
:1051E0000020FFF72DF910490020FFF729F9786812
:1051F00004F014F90346DBB219460948FDF7CCFE6A
:10520000F860FB68BB60BB68002B02D0B868FBF796
:10521000A9F9064B01221A7000BF1037BD4680BDA8
:10522000C434002014A9070018A90700BD340020C9
:1052300080B584B000AF78600B467B807B881A46CF
:1052400079680C4804F077F87B88DBB21946094886
:10525000FDF7A2FEF860FB68BB60BB68002B02D0C4
:10526000B868FBF77FF9044B01221A7000BF1037B2
:10527000BD4680BDC4340020BD34002080B586B05A
:1052800000AFF860B9607A607B800023FB757B68B3
:105290001B88BB827B6800221A80BB8A002B06D049
:1052A0007B681B881A46BB68134400221A7000F002
:1052B00035FB03461A46324B1B88D31A042B02DCFB
:1052C000022000F031FB00F029FB03461A462C4B6C
:1052D0001A80F868FFF772FF00F020FB03467B821C
:1052E00038E007F111031846FFF742FF034683F049
:1052F0000103DBB2002B00D02CE07B681B885A1C1A
:10530000BB8A9A4221DA7B681B881A46BB68134421
:105310007A7C1A707B681B8801339AB27B681A808A
:105320007B681B881A46BB68134400221A707B688E
:105330001B88043BBA68134404221249184604F03F
:1053400075F80346002B05D102E00123FB7501E04F
:10535000012310E000F0E2FA03461A467B8AD21AD3
:105360007B889A42BDDDFB7D002B03D006490020DF
:10537000FFF76AFB002318461837BD4680BD00BF03
:10538000443500201CA9070024A9070080B588B077
:1053900000AFF8607A603B600B467B810023FB83A3
:1053A00001237B7700237B83FB68002B06D000233F
:1053B0007B77F86804F032F803467B8300F0AEFA9E
:1053C00003463B8350E007F117031846FFF7D0FE72
:1053D000034683F00103DBB2002B00D044E0FB8BDB
:1053E00001333A681288934213DAFB8B7A681344CC
:1053F000FA7D1A70FB8B0133FB83FB8B7A681344B5
:1054000000221A707B7F83F00103DBB2002B1BD0DC
:1054100008E0BB6A4FF6FE721A803B68FA8B1A806E
:1054200000234DE0FA8B7B8BD31A1A467B6813441A
:105430007A8BF968184603F0F9FF0346002B03D175
:1054400001237B770023FB837B7F002B0CD0FA8B1F
:105450007B899A4208D1BB6A4FF6FF721A803B687B
:10546000FA8B1A8001232BE000F058FA03461A4603
:105470003B8BD21ABB8D9A42A5DD7B7F83F0010363
:10548000DBB2002B08D0BB6A4FF6FA721A803B6879
:10549000FA8B1A80002313E0FB8B002B08D0BB6A29
:1054A0004FF6FB721A803B68FA8B1A80002307E0E4
:1054B000BB6A4FF6FC721A803B6800221A800023F8
:1054C00018462037BD4680BD80B588B000AFF86073
:1054D000B9607A603B600023FB8300237B77002365
:1054E0003B77F86803F09AFF03467B833B684FF6EF
:1054F000FF721A807B681B88002B02D0BB680022D9
:105500001A7000F00BFA03463B8364E007F11703BF
:105510001846FFF72DFE034683F00103DBB2002B94
:1055200000D058E0FB8B01337A681288934213DA7B
:10553000FB8BBA681344FA7D1A70FB8B0133FB8333
:10554000FB8BBA68134400221A703B7F83F001037F
:10555000DBB2002B19D008E03B684FF6FE721A80D0
:105560007B68FA8B1A80002352E0FA8B7B8BD31A6C
:105570001A46BB6813447A8BF968184603F056FF45
:105580000346002B01D101233B773B7F002B13D037
:105590007B7F83F00103DBB2002B0DD0FB8B023B42
:1055A000BA68134402221C49184603F03FFF034621
:1055B000002B01D101237B777B7F002B0BD03B7F1E
:1055C000002B08D03B684FF6FF721A807B68FA8B7D
:1055D0001A8001231CE000F0A1F903461A463B8B18
:1055E000D21A3B8D9A4291DDFB8B002B08D03B6891
:1055F0004FF6FB721A807B68FA8B1A80002307E053
:105600003B684FF6FC721A807B6800221A800023E8
:1056100018462037BD4680BD5CA9070080B584B020
:1056200000AF786039603968786803F011FFF8607E
:10563000FB68002B07D1786803F0F0FE0346013BBE
:105640007A68134400E0FB6818461037BD4680BDF9
:1056500080B582B000AF786039607B681B78012B21
:1056600004D0022B24D0002B0ED019E07B685B689D
:105670001A78124B1A70012210490020FEF7BCFE66
:105680000F4B01221A7014E07B6859687B681B7A03
:105690001A460020FEF7B0FE0A4B00221A7008E0FE
:1056A0007B681B781A4608490020FFF7CDF900E017
:1056B00000BF002318460837BD4680BD783B002058
:1056C000BF340020BD34002060A9070080B582B03F
:1056D00000AF154B1B7883F00103DBB2002B1BD00E
:1056E00012491348FDF77AFB786001211320FFF778
:1056F0000CFD1320FFF729FD7B683B603B68002B06
:1057000002D03868FAF72EFF074B01221A700949B8
:105710000020FFF799F903E007490020FFF794F90B
:1057200000BF0837BD4680BDBE340020515607007B
:10573000642600209CA90700ACA9070038B50446E0
:105740000D460B46002201460B4800F0F3F940B924
:105750002B46224609490020FFF776F90023184618
:1057600038BD2B460A222146034800F055F903466E
:105770000028F4D1ECE700BF70AB0700D4AA070003
:1057800038B504460D460B46002201460B4800F092
:10579000D1F940B92B46224609490020FFF754F9B8
:1057A0000023184638BD2B460A222146034800F044
:1057B000C1F903460028F4D1ECE700BF70AB070045
:1057C00000AA070038B504460D460B4600220146E4
:1057D0000B4800F021F940B92B4622460949002028
:1057E000FFF732F90023184638BD2B460622214622
:1057F000034800F09FF903460028F4D1ECE700BF0E
:1058000070AB070020AB070030B583B004460D46EF
:105810000DF1070300220146124800F0BBF878B9E9
:105820009DF806209DF8073023EA02032B702246DC
:105830000D490020FFF708F90023184603B030BDDA
:105840000DF1060306222146064800F0A3F89DF854
:1058500006209DF8073023EA02032B700346002838
:10586000EBD1E4E770AB070050AA070038B5044657
:105870000B4609220146064800F08CF8054608B19F
:10588000284638BD22460349FFF7DEF8F8E700BF97
:1058900070AB070098AA070048DF704708B5084AB0
:1058A000136801331360002240F6CD410548FBF731
:1058B00053FBC0B200B908BDFAF754FEFBE700BFC6
:1058C000483500204C35002008B50B4A00210B4814
:1058D000FBF72CFBC0B240B9002240F6CD4108488E
:1058E000FBF73AFBC0B218B908BDFAF73BFEF3E785
:1058F000FAF738FEF8E700BF9D58070080AB0700B5
:105900004C35002008B50448FBF76CFBC0B200B969
:1059100008BDFAF727FEFBE74C350020014B18685D
:1059200080B270474835002070B50646FAF7D8FEB9
:10593000094B1C681B68A4B29BB21B1BB3420ADA5A
:105940003546054EFFF7A8FFFAF7CAFE33689BB24B
:105950001B1BAB42F6DB70BD4835002008B5FAF7DB
:10596000BFFE08BD08B5084B062201460748FDF7F3
:105970003FF808B9012008BDFAF7F4FD04490020FA
:10598000FFF762F8002008BD6C3500208426002057
:10599000E8AB0700F0B587B00D461E468DF807202E
:1059A000FFF7E0FF68B91948FDF742F89DF80730A6
:1059B0002A4617490020FFF747F80024204607B081
:1059C000F0BD04460DF10703029301228DF80C206F
:1059D00005FA02F38DF80D308DF80E2004968DF83F
:1059E000142013438DF8153000238DF81630074E20
:1059F000084B022202A93046FDF754F8074630460C
:105A0000FDF716F8002FD9D0D0E700BF842600207C
:105A100014AC07005D5907002DE9F0418AB00E462D
:105A20001C468DF80F20FFF79DFFA0B99DF825308B
:105A300023438DF825303C48FCF7FAFF9DF80F30E2
:105A40000094324639490020FEF7FEFF0025284623
:105A50000AB0BDE8F08105460DF10F030593012260
:105A60008DF8182006FA02F3DFB28DF819708DF860
:105A70001A200DF1250107918DF8202013438DF890
:105A8000213000238DF82230294B022205A9264817
:105A9000FDF708F89DF8253023438DF825300028C0
:105AA0003DD19DF80F200AAB03F8042D0593022386
:105AB0008DF818308DF8197000238DF81A301C4BB2
:105AC000012205A91848FCF7EDFF0028B3D10DF11C
:105AD0000F03059301228DF8182006FA02F38DF8C2
:105AE00019308DF81A200DF1250107918DF820202D
:105AF00013438DF8213000238DF82230DFF8288001
:105B00000B4B022205A94046FCF7CCFF9DF82570FF
:105B100027404046FCF78CFFBC4298D08EE70248F5
:105B2000FCF786FF8AE700BF8426002060AC0700F0
:105B30005D5907002DE9F0438BB00E461C468DF8E9
:105B40000F20FFF70FFFA8B99DF8253023EA0403C3
:105B50008DF825303D48FCF76BFF9DF80F30009421
:105B600032463B490020FEF76FFF002528460BB068
:105B7000BDE8F08305460DF10F03059301228DF872
:105B8000182006FA02F3DFB28DF819708DF81A208A
:105B90000DF1250107918DF8202013438DF8213058
:105BA00000238DF822302B4B022205A92748FCF751
:105BB00079FF9DF8253023EA04038DF8253000286D
:105BC0003FD19DF80F200AAB03F8042D0593022363
:105BD0008DF818308DF8197000238DF81A301D4B90
:105BE000012205A91948FCF75DFF0028B2D10DF18B
:105BF0000F03059301228DF8182006FA02F38DF8A1
:105C000019308DF81A200DF1250107918DF820200B
:105C100013438DF8213000238DF82230DFF82C90CB
:105C20000C4B022205A94846FCF73CFFE7439DF8D0
:105C3000258048EA07084846FCF7FAFE474595D014
:105C40008BE70248FCF7F4FE87E700BF84260020BC
:105C500084AB07005D59070080B582B000AF002318
:105C6000FB71BB1D19462220FFF7CEFD0346FB71D9
:105C7000FB79002B11D0BB7903F04003002B0CD033
:105C800040212220FFF77CFD03461A46FB79134092
:105C9000002B14BF01230023FB71FB79002B11D0D3
:105CA000BB7903F01003002B0CD010212220FFF74A
:105CB00067FD03461A46FB791340002B14BF0123EE
:105CC0000023FB7102212220FFF77CFD0346FB71BC
:105CD00080212220FFF754FD03461A46FB7913402A
:105CE000002B14BF01230023FB7101212220FFF7A9
:105CF00047FD03461A46FB791340002B14BF0123CE
:105D00000023FB71FFF7E2FCFB7983F00103DBB2B8
:105D1000002B03D004490020FEF796FEFB791846BD
:105D20000837BD4680BD00BFC0AC070080B582B05B
:105D300000AF0023FB7110212220FFF7FFFC034678
:105D4000FB710120FFF7F0FD40212220FFF7F6FC58
:105D500003461A46FB791340002B14BF012300238E
:105D6000FB71FB7983F00103DBB2002B03D0044904
:105D70000020FEF769FEFB7918460837BD4680BD56
:105D800000AD070080B582B000AF0023FB71402159
:105D90002220FFF7F5FC0346FB710120FFF7C4FD4D
:105DA00010212220FFF7ECFC03461A46FB79134032
:105DB000002B14BF01230023FB71FB7983F0010347
:105DC000DBB2002B03D004490020FEF73DFEFB7937
:105DD00018460837BD4680BD2CAD070080B584B09D
:105DE00000AF78600023FB7307F10E0319462220F1
:105DF000FFF73CFD0346FB73FB7B002B0AD0BB7B0C
:105E000003F04003002B14BF01230023DAB27B68A8
:105E10001A7003E004490020FEF716FEFB7B1846CB
:105E20001037BD4680BD00BF5CAD070080B582B0B5
:105E300000AF0023FB7101212220FFF77FFC034606
:105E4000FB710120FFF770FD01212220FFF798FC74
:105E500003461A46FB791340002B14BF012300238D
:105E6000FB71FB7983F00103DBB2002B03D0044903
:105E70000020FEF7E9FDFB7918460837BD4680BDD6
:105E800090AD070080B584B000AF78600023FB734D
:105E900007F10E0319462220FFF7E8FC0346FB73C7
:105EA000FB7B002B0AD0BB7B03F00203002B0CBF53
:105EB00001230023DAB27B681A7003E00449002052
:105EC000FEF7C2FDFB7B18461037BD4680BD00BF04
:105ED000BCAD070080B594B002AF0023FB80402327
:105EE000BB800F48FFF76AF9B81D3A1D07F108019A
:105EF0003223009303460B48FFF7E6FA034683F08C
:105F00000103DBB2002B05D007490020FEF79CFD02
:105F1000002300E0012318464837BD4680BD00BF7E
:105F200024AE070028AE070030AE070080B594B05D
:105F300002AF002387F8473000237B8040233B805B
:105F400007F147031846FFF749FF034683F00103B3
:105F5000DBB2002B06D197F8473083F00103DBB2A8
:105F6000002B09D0FFF7E2FE034683F00103DBB20A
:105F7000002B01D000233FE06420FDF731FF002318
:105F800087F8473007F147031846FFF77BFF0346C2
:105F900083F00103DBB2002B06D197F8473083F082
:105FA0000103DBB2002B0FD0FFF740FF034683F065
:105FB0000103DBB2002B07D011490020FEF744FD9E
:105FC000FFF7E0FE002317E0B81C3A46391D4FF4F6
:105FD0001673009303460B48FFF776FA034683F0E7
:105FE0000103DBB2002B03D007490020FEF72CFD94
:105FF0001E20FFF799FC012318464837BD4680BD97
:1060000050AE070078AE070084AE070080B594B0AC
:1060100002AF0023FB804023BB8024490020FEF711
:1060200013FD2348FFF7CAF8B81D3A1D07F1080110
:106030003223009303461F48FFF746FA034683F0D6
:106040000103DBB2002B03D01B490020FEF7FCFC50
:106050000A20FFF769FC0023FB70FB1C1846FFF7C2
:1060600011FF034683F00103DBB2002B02D1FB7862
:10607000002B03D011490020FEF7E6FCFFF782FE5B
:10608000034683F00103DBB2002B05D00C4900204E
:10609000FEF7DAFC002304E00A490020FEF7D4FCF6
:1060A000012318464837BD4680BD00BFB4AE070087
:1060B000D0AE0700DCAE0700ECAE070010AF070063
:1060C00040AF070064AF070080B5A2B000AF8023E7
:1060D0007B802E490020FEF7B7FCFAF701FB002376
:1060E00087F8873014E0BA1C391D32232848FFF79F
:1060F000C5F80346002B03D0012387F887300BE057
:106100001E20FFF711FC97F88730013387F887309E
:1061100097F88730022BE6D997F88730002B05D106
:106120001C490020FEF790FC00232BE080237B809D
:10613000BA1C391D32231848FFF7A0F8034683F034
:106140000103DBB2002B05D014490020FEF77CFCD4
:10615000002317E00520FFF7E7FB80237B80BA1CB4
:10616000391D32230E48FFF789F8034683F00103F7
:10617000DBB2002B05D00B490020FEF765FC0023A5
:1061800000E0012318468837BD4680BD7CAF07007C
:10619000A8AF0700B4AF0700ECAF07000CB00700D2
:1061A00040B0070060B0070080B592B000AF402358
:1061B000FB80BA1D07F1080132231648FFF75EF88D
:1061C0000346002B1AD007F1080313491846FFF7BE
:1061D00025FA3B461A46114903F0ECF80346012B19
:1061E00007D13B68012B02D03B68052B0CD1012362
:1061F0000BE00B490020FEF727FC05E009490020D1
:10620000FEF722FC002300E0002318464837BD4675
:1062100080BD00BF88B0070094B007009CB00700A5
:10622000A8B00700E0B0070080B594B002AF00232B
:10623000FB804023BB803A1D07F1080132231F4831
:10624000FFF71CF8034683F00103DBB2002B05D0F7
:106250001B490020FEF7F8FB00232BE0FFF7A4FF0B
:106260000346002B01D0012324E04023BB80B81D4E
:106270003A1D07F108014FF41673009303461148C5
:10628000FFF722F9034683F00103DBB2002B0CD0A9
:106290000D490020FEF7D8FBFFF786FF034683F089
:1062A0000103DBB2002B04D001E0012302E0002354
:1062B00000E0012318464837BD4680BD10B10700F5
:1062C0001CB1070044B1070050B1070080B5CAB047
:1062D00002AF07F11A034FF480721A80002387F887
:1062E0001F314DE007F11A034FF480721A8007F155
:1062F0001A0207F11C0132235248FEF7BFFF034682
:1063000083F00103DBB2002B04D04F490020FEF7DD
:106310009BFB2DE007F11A034FF480721A8007F1FE
:106320001A0207F11C0132234848FEF7A7FF034673
:10633000002B19D007F11C0345491846FFF76EF9E9
:1063400007F114031A46434903F034F80346012BBE
:1063500005D107F114031B68012B09D114E03E4954
:106360000020FEF771FB03E03C490020FEF76CFBC8
:106370000520FFF7D9FA97F81F31013387F81F314D
:1063800097F81F31022BADD907F11A034FF4807231
:106390001A8007F11A0207F11C0132233048FEF778
:1063A0006DFF034683F00103DBB2002B03D02D49C0
:1063B0000020FEF749FB07F11A034FF480721A80A0
:1063C00007F11A0207F11C0132232748FEF756FF96
:1063D0000346002B2BD007F11C0324491846FFF776
:1063E0001DF93B1D191D3A1D3B1D0C3301933B1D2F
:1063F000083300930B461E4902F0DCFF0346042BD2
:1064000010D13B1D19683B1D58683B1D9B683A1D08
:10641000D2680192009303460A4616490020FEF70F
:1064200013FB08E014490020FEF70EFB03E01349BC
:106430000020FEF709FB0123184607F59077BD46BB
:1064400080BD00BF74B1070084B10700B4B107007C
:10645000C0B107009CB00700CCB1070000B2070034
:106460002CB207004CB207007CB2070088B20700CC
:1064700098B20700ACB20700D4B207000CB3070013
:1064800080B500AFFFF726FD034683F00103DBB2C2
:10649000002B01D000232AE0FFF716FE034683F00D
:1064A0000103DBB2002B05D012490020FEF7CCFA25
:1064B00000231CE0FFF7B8FE034683F00103DBB2C4
:1064C000002B05D00C490020FEF7BEFA00230EE099
:1064D000FFF7FCFE034683F00103DBB2002B05D07F
:1064E00006490020FEF7B0FA002300E00123184619
:1064F00080BD00BF40B3070070B30700A0B3070022
:1065000080B5B6B002AF786039600023A7F84E308E
:106510008023A7F84C3000F0F9F807F14C0207F19E
:10652000500132234A48FEF7A9FE034683F00103D7
:10653000DBB2002B05D047490020FEF785FA002387
:1065400082E08023A7F84C3007F14C0207F150019C
:1065500032234148FEF792FE034683F00103DBB28B
:10656000002B05D03D490020FEF76EFA00236BE0BA
:1065700007F110003B6800937B68394A3B2102F029
:10658000E5FE8023A7F84C3007F14C0207F15001DB
:1065900007F110003223FEF771FE034683F001037A
:1065A000DBB2002B05D02F490020FEF74DFA002367
:1065B0004AE08023A7F84C3007F14C0207F1500164
:1065C00032232948FEF75AFE034683F00103DBB26B
:1065D000002B05D025490020FEF736FA002333E0D2
:1065E0008023A7F84C3007F14E0007F14C0207F169
:1065F00050019623009303461D48FEF765FF0346AE
:1066000083F00103DBB2002B11D01A490020FEF702
:106610001BFA0023FB7307F10F03184600F02EF856
:10662000034683F00103DBB2002B08D101E0012314
:106630000AE0FB7B83F00103DBB2002B03D00E49A1
:106640000020FEF701FA01231846D037BD4680BD71
:10665000CCB30700ECB307001CB4070034B4070048
:1066600064B407008CB40700BCB40700C8B40700CA
:10667000F0B40700FCB4070020B5070080B5A4B053
:1066800000AF78608023FB810023BB607B68002221
:106690001A7007F10E0207F1100132231748FEF7B6
:1066A000EDFD034683F00103DBB2002B05D0144956
:1066B0000020FEF7C9F900231BE007F11003114980
:1066C0001846FEF7ABFF07F108031A460E4902F021
:1066D00071FE0346012B05D009490020FEF7B4F9ED
:1066E000002306E0BB68002B02D07B6801221A70F1
:1066F000012318469037BD4680BD00BF4CB507004A
:1067000058B507008CB507009CB0070080B592B063
:1067100000AF4023FB80BA1D07F1080132230A486D
:10672000FEF7ACFD034683F00103DBB2002B05D07E
:1067300006490020FEF788F9002300E001231846EF
:106740004837BD4680BD00BF98B50700A4B5070017
:1067500090B5A7B002AF78600B46FB704023A7F856
:106760004A300023A7F8483040490020FDF768FE72
:10677000002387F88F300EE097F88F307A68134443
:106780001B781A463A490020FEF75EF997F88F30D9
:10679000013387F88F3097F88F20FB789A42EBD33C
:1067A00034490020FDF74CFE0120FFF7BDF8FB78CF
:1067B00007F12800304A202102F0C8FD07F1280324
:1067C0001846FEF7FBFCFB7807F108002B4A202156
:1067D00002F0BCFD07F1480407F14A0207F14C0141
:1067E00007F10800322300932346FEF76DFE0346AF
:1067F00083F00103DBB2002B05D021490020FEF716
:1068000023F900232DE0FB789BB219467868FEF748
:106810000FFD4023A7F84A3007F1480007F14A026C
:1068200007F14C010A23009303461648FEF74CFE7D
:10683000034683F00103DBB2002B11D01249002084
:10684000FEF702F9FFF746FB034683F00103DBB2D4
:10685000002B03D00D490020FEF7F6F8002300E0DE
:10686000012318469437BD4690BD00BFD0B5070040
:10687000DCB50700E4B50700F0B5070000B6070077
:106880000CB6070028AE07003CB6070060B607004C
:1068900090B5CBB002AF07F10C0420600846391D5B
:1068A0000A603A46136007F10A0302461A80002381
:1068B000A7F81C3107F11A034FF480721A803B4687
:1068C0001B681B881A463B1D00211868F9F740FE1B
:1068D00007F10A031B88DAB207F10C0311461868A6
:1068E000FFF736FF034683F00103DBB2002B05D030
:1068F0005D490020FEF7A8F80023AFE097F830319B
:106900009BB207F58E7007F11A0207F11C01009384
:1069100003465648FEF7D8FD034683F00103DBB279
:10692000002B05D052490020FEF78EF8002395E099
:106930005048FEF743FC07F11A034FF480721A80A7
:1069400097F830319BB207F58E7007F11A0207F104
:106950001C01009303464848FEF7B6FD034683F04A
:106960000103DBB2002B05D044490020FEF76CF890
:10697000002373E007F11C0341491846FEF74EFE61
:1069800007F114031A463F4902F014FD0346012B98
:1069900005D03D490020FEF757F800235EE007F1DF
:1069A00014031B6898B23B463A1D1421019107F568
:1069B0008E7100911B68126801460020FEF7E6FC0C
:1069C000034683F00103DBB2002B05D02F490020E2
:1069D000FEF73AF8002341E007F11A034FF4807202
:1069E0001A8007F58E7007F11A0207F11C010A23BD
:1069F000009303462648FEF767FD034683F0010334
:106A0000DBB2002B05D023490020FEF71DF8002340
:106A100024E021490020FDF713FD002387F81F31F2
:106A20000FE097F81F313A1D126813441B781A467D
:106A30001A490020FEF708F897F81F31013387F84C
:106A40001F3197F81F319AB23B461B681B889A4248
:106A5000E7D313490020FDF7F3FC0123184607F59F
:106A60009277BD4690BD00BF90B60700B0B6070054
:106A7000B8B60700E4B60700F4B6070000B7070091
:106A800038B707009CB0070044B7070078B7070085
:106A900028AE0700A8B70700D0B50700DCB507008F
:106AA000E4B5070090B5D1B000AF07F10C03186052
:106AB00007F108031960FB1D1A7007F116034FF464
:106AC00080721A8007F116031B881A4607F13803F3
:106AD00000211846F9F73CFDFB1D1B789BB207F11E
:106AE000160207F138014748FEF7C8FB034683F05A
:106AF0000103DBB2002B05D043490020FDF7A4FFC2
:106B0000002379E007F1380340491846FEF786FD77
:106B100007F110031A463E4902F04CFC0346012BD4
:106B200005D03C490020FDF78FFF002364E007F10A
:106B300010031B68C82B04D807F110031B68002B37
:106B400005D135490020FDF77FFF002354E007F110
:106B500010031B6807F11800304A202102F0F6FBF1
:106B600007F1180207F1380311461846FEF756FDE3
:106B7000044607F11803184602F050FC034623446C
:106B8000C7F8383107F110031B68DAB207F10803C0
:106B90001B681A7007F110031A6807F10C03D7F885
:106BA0003811186802F0C7FB1D490020FDF748FCAA
:106BB0000023C7F83C3110E007F10C031A68D7F83E
:106BC0003C3113441B781A4616490020FDF73CFF60
:106BD000D7F83C310133C7F83C3107F110031B688B
:106BE000D7F83C219A42E7D30F490020FDF728FC53
:106BF0000120FEF799FE0123184607F5A277BD464E
:106C000090BD00BFE4B60700D4B70700F4B6070094
:106C10009CB0070044B70700F8B707002CB807007E
:106C2000D0B50700DCB50700E4B5070079B110B4B2
:106C3000431E013910FA81F11046064C13F8012F5A
:106C40005040205C8B42F9D15DF8044B70471046F0
:106C5000704700BF3CB8070079B110B4431E01393A
:106C600050FA81F10020064C13F8012F5040205CAF
:106C70008B42F9D15DF8044B70470846704700BF5E
:106C80003CB8070080B582B000AF786001227B6815
:106C900002FA03F3184600F004F800BF0837BD46B7
:106CA00080BD80B485B000AF78604FF0A043D3F8CA
:106CB0000435FB604FF0A041FB68DA437B6813406A
:106CC000C1F808354FF0A041FA687B681340C1F85D
:106CD0000C3500BF1437BD465DF8047B70470000DB
:106CE00080B588B000AF0346FB800023FB7700230C
:106CF000FB751E20FEF718FE65490020FDF7A4FE77
:106D0000FEF7AAFF07F117031846FFF7BBF8034683
:106D100083F00103DBB2002B05D1FB7D83F001037F
:106D2000DBB2002B0DD0FFF701F9034683F001031E
:106D3000DBB2002B05D057490020FDF785FE00236C
:106D4000A1E055490020FDF77FFEFFF799FB0346C0
:106D500083F00103DBB2002B07D050490020FDF780
:106D600073FEFFF753F900238DE00220FEF7DCFDF0
:106D70004B494C48FFF7C4FB0346002B75D04A49EA
:106D80000020FDF761FE4FF6FF737B83FB883B839A
:106D900046490020FDF758FE0023BB7723E007F1AA
:106DA0000802398B7B8B184600F096F80346002BBF
:106DB00002D001237B7719E0BB7F002B07D13C4930
:106DC0000020FDF741FE0A20FEF7AEFD06E039493E
:106DD0000020FDF739FE1E20FEF7A6FD00237B777D
:106DE000BB7F0133BB77BB7F032BD8D97B7F002BC5
:106DF00034D031490020FDF727FE3B893A8B9A4277
:106E000002D03B8B002B22D13B897A8B9A4217D040
:106E10002A490020FDF718FE07F10803184600F084
:106E2000C5F90346FB77FB7F002B04D024490020E3
:106E3000FDF70AFE1FE023490020FDF705FE1AE0DA
:106E400021490020FDF700FE0123FB7713E01F49D5
:106E50000020FDF7F9FD0023FB770CE01C49002022
:106E6000FDF7F2FD0023FB7705E01A490020FDF74E
:106E7000EBFD0023FB77FFF7C9F8FB7F002B14BF66
:106E800001230023DBB218462037BD4680BD00BF7A
:106E90003CB9070058B907007CB907008CB9070056
:106EA000B8B90700C0B90700D0B90700E0B90700BA
:106EB000F8B9070010BA070028BA070040BA07005F
:106EC00054BA07006CBA070088BA0700B4BA0700C2
:106ED000E4BA070000BB070090B58BB000AF0346D3
:106EE0003A60FB800B46BB8001233B7204237B721C
:106EF0000223BB720123FB7207F108030433FA88F3
:106F00001A8007F108030633BA881A8007F10803CC
:106F100008211846FFF7A0FE03463B7407F108035B
:106F200009211846FFF714FC0346002B42D0142019
:106F3000FEF7FAFC1E2387F8273007F1270107F137
:106F4000080332221846FFF7ADFD0346002B2FD071
:106F50003B7A022B2AD17B7A042B27D1BB7A022BD6
:106F600024D1FB7A3A7B120213439AB23B681A800F
:106F70007B7BBA7B12021343FA7B120413433A7CE5
:106F8000120613431A463B685A607A7C3B681A72B1
:106F9000BC7C07F108030A211846FFF75DFE034693
:106FA0009C4201D1012306E0002304E0002302E01B
:106FB000002300E0002318462C37BD4690BD00009A
:106FC00090B5AFB002AFF860B9607A609623A7F8C9
:106FD000AC3007F1AC0107F11402322300930B46E9
:106FE0000A21F868FFF754FC034683F00103DBB283
:106FF000002B05D035490020FDF726FD002361E078
:107000003B7D042B05D032490020FDF71DFD0023F8
:1070100058E0012387F8AF3018E097F8AF30FA68EE
:1070200013441A7897F8AF3007F1B0010B4413F806
:107030009C3C9A4205D027490020FDF705FD00231E
:1070400040E097F8AF30013387F8AF3097F8AF30B2
:10705000082BE2D997F89D4007F1140389211846BF
:10706000FFF7FAFD03469C4205D01B490020FDF7BF
:10707000EBFC002326E0002387F8AE301AE097F8F7
:10708000AE309AB27B681B889A4201D3002319E084
:1070900097F8AE30BA68134497F8AE20093207F17A
:1070A000B0010A4412F89C2C1A7097F8AE300133E4
:1070B00087F8AE3097F9AE30002BE0DA7B6880229B
:1070C0001A8001231846B437BD4690BD20BB070087
:1070D00050BB07009CBB07000CBC070080B5C4B0C8
:1070E00000AF3B1D18603B4619603B1D3A1D1268FE
:1070F00002F580521A600023A7F80E3143E03946AA
:107100003B1D802209681868FDF720FF0346002B0D
:1071100024D007F10C013B1D80221868FDF701FE09
:107120000346002B14D007F10C013B46802218685F
:1071300002F0F2F80346002B04D118490020FDF7B5
:1071400083FC11E016490020FDF77EFC00231FE0C0
:1071500014490020FDF778FC002319E012490020B3
:10716000FDF772FC002313E03B463A46126880327A
:107170001A603B1D3A1D126880321A60B7F80E3152
:107180008033A7F80E31B7F80E31FF2BB7D90123A2
:10719000184607F58877BD4680BD00BF58BC07007C
:1071A00078BC0700A4BC0700C0BC070080B5D2B003
:1071B00002AF3B1D1860002387F8393107F1260321
:1071C0004FF6FF721A800023C7F83431032387F883
:1071D0002831042387F82931022387F82A3107F55B
:1071E000947303333A1D126812881A800023C7F87B
:1071F0003C311DE0D7F83C31DB0B1A46D849002062
:10720000FDF722FCD7F83C01FDF71AFE034683F098
:107210000103DBB2002B05D0D2490020FDF714FC9E
:107220000023BEE1D7F83C3103F50043C7F83C31F9
:107230003B1D1B685B6803F50042D7F83C319A425E
:10724000D8D20023C7F83C31F9E00023A7F8323147
:107250007AE007F594730533B7F83211D7F83C217B
:107260000A441A6007F5947309211846FFF7F4FCE5
:10727000034687F83131002387F83A31002387F835
:107280003B314CE007F1240380221A80B7F83231F9
:1072900007F1240212881344B3F5807F07D9B7F8A9
:1072A0003231C3F580739AB207F124031A80B7F81C
:1072B000323107F12802D11807F1240207F594733F
:1072C0001846FFF77DFE03461A4697F83A311343F6
:1072D00087F83A3107F124031B88802B03D0002361
:1072E00087F83A3103E097F83A31002B1CD197F830
:1072F0003B31002B07D19C490020FDF7A5FB1E2048
:10730000FEF712FB06E099490020FDF79DFB642083
:10731000FEF70AFB97F83B31013387F83B3197F8CA
:107320003B31032BAED900E000BF97F83A31002B78
:1073300005D18F490020FDF787FB002331E1B7F825
:1073400032318033A7F83231B7F83231FF2B80D990
:107350000F20FFF797FC002387F83A31002387F8C6
:107360003B311DE007F128031946D7F83C01FFF730
:10737000B5FE03461A4697F83A31134387F83A3177
:1073800097F83A31002B10D17A490020FDF75CFBC9
:107390000320FEF7C9FA97F83B31013387F83B31F8
:1073A00097F83B31022BDDD900E000BF97F83A3166
:1073B000002B05D170490020FDF746FB0023F0E0CB
:1073C0003B1D1B685A68D7F83C31D31AC7F83431D3
:1073D000D7F83431B3F5807F03D94FF48073C7F801
:1073E000343107F1260207F12803D7F83411184683
:1073F000FAF768F803461A4607F126031A80D7F809
:10740000343199B297F8392107F128031846FFF76C
:107410000DFC034687F8393197F8392107F1260327
:107420001B8800931346D7F83C2154490020FDF7F0
:107430000BFBD7F83C3103F58073C7F83C313B1D9B
:107440001B685A68D7F83C319A423FF6FEAE3B1DA6
:107450001B681B7A97F839219A4240F09D80484971
:107460000020FDF7F1FA07F10C0300225A6007F142
:107470000C0397F839211A7407F126031A8807F1CB
:107480000C035A823B1D1B681A8807F10C035A81B2
:1074900007F10C0340F202421A813B1D1B685A6837
:1074A00007F10C03DA6007F10C034FF004321A60A5
:1074B00007F10C03002214211846FAF703F80346DB
:1074C0001A4607F10C039A8207F10C0107F1280311
:1074D0001822184601F02FFF002387F83A310023C5
:1074E00087F83B312EE007F12803182219460020C7
:1074F000FDF72CFD0346002B18D007F128031822B6
:1075000019460020FDF70DFC0346002B0ED007F1B5
:107510000C0107F128031822184601F0FDFE03466E
:10752000002B03D1012387F83A310FE015490020E1
:10753000FDF78AFA0320FEF7F7F997F83B3101339C
:1075400087F83B3197F83B31022BCCD997F83A3189
:10755000002B1BD00C490020FDF776FA012320E018
:10756000DCBC0700F8BC070010BA070018BD070014
:1075700030BD070058BD070068BD070084BD070087
:10758000A0BD0700CCBD0700F8BD070007490020DB
:10759000FDF75AFA002304E005490020FDF754FAEC
:1075A0000023184607F5A077BD4680BD1CBE070026
:1075B0003CBE070010B5044669B9032822D1022257
:1075C000174B1A70174A00210846F9F725F848B1F9
:1075D000F8F7C8FF10BD0846F8F7C4FF032CEED03B
:1075E000042C00D010BD00220F4B1A700F4A1368F4
:1075F000013313600B4A00210846F9F70DF8E6E75E
:107600000020E4E70428FBD1094A136880331360A3
:10761000054B1B78002BEDD00422014B1A70E9E7D3
:107620008A35002055760700A4350020C435002097
:10763000C835002038B5154601F580544068DAB2E7
:107640002946201AFDF76DFB00280CBF03200020FF
:1076500038BD0000F8B53C4B1B78013B032B71D8BB
:10766000DFE803F00218466C384803230360384B08
:107670004360384AD268DA6000229A605A60042176
:107680001970354B1A80FAF7ADF800285AD0F8F780
:1076900069FFF8BD2D4C0122226030492D4E7389BF
:1076A0004B603389180A4880DBB20B804FF6FE73BB
:1076B0004B810A812A4D0C22284601F03CFE738A38
:1076C0002B731B0A6B7305236360A5602046FAF7D2
:1076D00067F9FAF741F940B903221B4B1A70214AA6
:1076E00000210846F8F798FFF8BDF8F73BFFF3E7ED
:1076F0001D4B19681748C468641A802C28BF802461
:10770000A5B22B46164AFFF795FFA0B9124F144EAB
:107710003A4621463046F9F7D5FE38800B48042317
:1077200003608660AD084560FAF7CAF850B90122D7
:107730000E4B1A70F8BDF8F715FFE7E7FAF764F992
:10774000FAF790F9F8BD00BF8A350020CC3500204B
:10775000B43500208C35002088350020A835002065
:10776000D835002055760700C8350020A435002004
:1077700010B586B00C4600EB400018226946C000E8
:10778000FDF7CFFA10B9032006B010BD0022142176
:107790006846F9F797FEBDF81430834218BF0B20F6
:1077A000F2D118226946204601F0C5FD0020EBE722
:1077B00010B50E490020FFF7DBFF98B900240C4BF1
:1077C0001C6001220B4B1A700B4B1C700B4B1C6086
:1077D0000B48FAF701F80B4A21462046F8F71CFF40
:1077E000204610BDF8F7BEFEE8E700BF8C3500204C
:1077F000C83500208A350020A4350020C43500207B
:10780000B57507005576070080B400AFBFF34F8F02
:107810000549054BDB6803F4E062044B1343CB607E
:10782000BFF34F8F00BFFDE700ED00E00400FA0555
:1078300013DF704700BF184618DF704700BF1846B7
:1078400080B582B000AF7860396005E0786800F0FC
:1078500032F87B6801337B607A683B689A42F5D9DD
:1078600000BF0837BD4680BD80B483B000AF7860EC
:10787000084611461A460346FB700B46BB7013467A
:107880007B704FF0A041FA78BB785B001A437B789D
:107890009B001A433B7C1B021A433B7D1B041A438B
:1078A0007B6803F5E07341F8232000BF0C37BD4629
:1078B0005DF8047B704780B584B002AF7860002328
:1078C0000193002300930023012201217868FFF730
:1078D000CBFF00BF0837BD4680BD80B584B002AF86
:1078E00078600B46FB701346BB70FA78BB78019347
:1078F000002300931346002200217868FFF7B4FFAD
:1079000000BF0837BD4680BD80B483B000AF78604B
:107910004FF0A04201217B6801FA03F3C2F8083559
:1079200000BF0C37BD465DF8047B704780B483B060
:1079300000AF78604FF0A0427B68C2F8083500BF06
:107940000C37BD465DF8047B704780B483B000AF50
:1079500078604FF0A04201217B6801FA03F3C2F87E
:107960000C3500BF0C37BD465DF8047B704780B412
:1079700083B000AF78604FF0A0427B68C2F80C354E
:1079800000BF0C37BD465DF8047B704780B483B000
:1079900000AF78604FF0A043D3F810257B6822FA3F
:1079A00003F303F0010318460C37BD465DF8047B72
:1079B000704780B500AF0F210E20FFF741FF4FF455
:1079C0004040FFF7B3FF00BF80BD000080B582B02C
:1079D00000AF094B094A06210020F9F751FA7860F7
:1079E0007B683B603B68002B02D03868F8F7BAFD33
:1079F00000BF0837BD4680BD5D100700D8360020A7
:107A000080B500AF032200211820FFF766FF00BFFA
:107A100080BD80B582B000AF78607868FCF7D2FA9C
:107A200000BF0837BD4680BD80B594B000AF0346A7
:107A3000FB7107F1200300221A605A609A60DA6035
:107A400002233B62314B1B68FB61FB79002B0DD09D
:107A500007F120031846FFF7EFFEF864FB6CBB64E8
:107A6000BB6C002B02D0B86CF8F77CFD4FF4E02023
:107A7000FFF7DEFEF864FB6C7B647B6C002B02D0AE
:107A8000786CF8F76FFD07F11C00214B4822214963
:107A900001F004FB38643B6CFB63FB6B002B02D0F2
:107AA000F86BF8F75FFD07F108031A460121012082
:107AB00001F068FBF864FB6CBB63BB6B002B02D06E
:107AC000B86BF8F74FFD3B7D43F001033B7507F1C1
:107AD0000803184601F06EFBF864FB6C7B637B6B5C
:107AE000002B02D0786BF8F73DFD0B4801F030FB1E
:107AF000F864FB6C3B633B6B002B02D0386BF8F7F0
:107B000031FD00BF5037BD4680BD00BF58BE0700E5
:107B100041920700E8380020137A070080B582B050
:107B200000AF094A14210820F8F752FD78607B68FD
:107B30003B603B68002B02D03868F8F713FD00BFAC
:107B40000837BD4680BD00BF3039002080B584B005
:107B500000AF0346FB710023FB7312E04FF440407B
:107B6000FFF7E4FE4FF49670FCF73AF94FF440400B
:107B7000FFF7FDFE4FF49670FCF732F9FB7B013303
:107B8000FB73FB7B022BE9D94FF44040FFF7CEFE9D
:107B900000BF1037BD4680BD80B598B002AFFCF77E
:107BA00063FF022300930423B04AB1490020FCF78D
:107BB0004BFF002387F85730002387F8563040F2F8
:107BC0000B13A7F854304FF08043D3F81C35B12B7A
:107BD0000CBF0123002387F853304FF08043D3F8C4
:107BE0001C35B22B0CBF0123002387F85130002332
:107BF00087F8503097F85330002B03D197F8513065
:107C0000002B04D04FF080430022C3F81C25994B71
:107C10001B68B3F5E02F0CBF01230023DBB2FB642C
:107C2000FB6C002B02D10020F8F79CFC4FF0805336
:107C30001B69B3F5805F0CBF01230023DBB2BB647B
:107C4000BB6C002B02D10020F8F78CFCFFF7BEFEC6
:107C5000FFF7D6FEFDF716F8FFF7ABFEC820FCF7DE
:107C6000BFF84FF44040FFF782FE322387F85230CE
:107C700002E06420FCF7B4F897F85230013B87F833
:107C8000523097F85230002B05D01820FFF77EFEB7
:107C90000346002BEDD197F85230002B02D101237F
:107CA00087F85330F9F72CFBF9F786FB0346002BD6
:107CB0002ED00E20FFF749FEF9F791FB78647B6C1C
:107CC0003B643B6C002B02D0386CF8F74BFC97F808
:107CD0005030002B14BF01230023DBB283F00103DB
:107CE000DBB203F00103DBB21846FFF79DFEFFF79E
:107CF00015FFF9F794FB78647B6CFB63FB6B002B3F
:107D000002D0F86BF8F72EFC0E20FFF7FDFD11E016
:107D100097F85030002B14BF01230023DBB283F00F
:107D20000103DBB203F00103DBB21846FFF77CFE70
:107D3000FFF7F4FEFDF7C8FDFDF79AF997F8533009
:107D4000002B0FD197F85130002B0BD143F20803D1
:107D50001B681846F9F718FA034683F00103DBB2F3
:107D6000002B63D097F853301846FFF7EFFE0E2034
:107D7000FFF7EBFD97F8533083F00103DBB2002BE4
:107D80003CD097F85130002B07D03B461846F9F706
:107D90005AFBBB8BA7F8543002E00023A7F85430FD
:107DA000B7F854301A4634490020FCF74DFE07F16D
:107DB000200319460020FFF7DBFC0346002B07D108
:107DC0007B8DB7F854209A4202D1012387F85730AF
:107DD00097F8573083F00103DBB2002B0ED0B7F8D1
:107DE00054301846FEF77CFF0346002B03D00123D6
:107DF00087F8573002E0012387F8563097F856305D
:107E000083F00103DBB2002B0DD097F857301846F2
:107E1000F9F792FA78647B6CBB63BB6B002B02D0E2
:107E2000B86BF8F79FFB0E20FFF76EFDFDF76AFDBC
:107E300043F208031B681846F9F7A6F90346002B1E
:107E40000DD0F9F7B9FA034683F00103DBB2002B3A
:107E500005D043F208031B681846F9F77FFAFFF7CD
:107E6000D3FC002318465837BD4680BD5CBE0700D2
:107E700060BE07001410001084BE070071DF704759
:107E800072DF704779DF70477DDF704765DF7047CD
:107E90002DE9F04F85B00E9EBDF83CB034880194BA
:107EA0000488002C55D09A461746884605464FF060
:107EB00000094C461AE0013292B232800AF8028080
:107EC000338801333380328852440DF10B0103A80B
:107ED000FFF7DCFF40BB9DF80B3032881344338042
:107EE0004FF0010901342B88A3421FDD6968042289
:107EF00001EB840103A801F01EFA00220DF10B0131
:107F000003A8FFF7C3FF0090E0B99DF80B30BB4218
:107F1000E8D1B9F1000F1FD13288134402335B4519
:107F2000C9DD0C2300930DE000900BE0B9F1000FC8
:107F300008D03388013B019A9B1A9BB2FF2B05D9CD
:107F40000C230093009805B0BDE8F08F0AF80230CA
:107F5000F8E700230093F5E7328813445B45B2DD70
:107F60000C230093EEE72DE9F04182B00646174658
:107F70009846089CBDF82450019500940222FFF712
:107F800087FF034618B1184602B0BDE8F08101959D
:107F900000944346102239463046FFF779FF0346E6
:107FA000F1E72DE9F04784B0168800231380436B76
:107FB000BBB1022E04D80C23184604B0BDE8F087EC
:107FC0001C7802230B70138801339BB21380112598
:107FD000CD54138801339BB21380CC5413880133E2
:107FE0001380076BDFB1138803F11204B44201D987
:107FF0000C23E1E71124CC54138801339BB2138086
:108000001024CC541388013313803D1915F8014D09
:108010001388CC54148801341480AF42F6D190F800
:108020002E30C3B914460F46054690F82D30002B6C
:108030003AD1AB78002B66D1EB78002B40F08780EB
:108040006B68002B00F0AC802288D11CB14240F25A
:1080500095800C23B0E71488E51CB54201D90C23A8
:10806000AAE702250D5514880134A4B214801C25FA
:108070000D5514880134A4B21480013B032B00F287
:10808000B881DFE803F002080B0E00230B551388BC
:1080900001331380C6E701230B55F8E702230B5584
:1080A000F5E703230B55F2E713880933B34201D9EF
:1080B0000C2381E702A8FFF7E1FE034600287FF4C6
:1080C0007BAF23880822FA54238801339BB2238094
:1080D0001B22FA542088013080B2208006220DF144
:1080E0000901384401F027F9238806339BB2238025
:1080F0009DF8082022B9FA5423880133238098E799
:108100000122FA54F8E723880433B34201D90C233F
:1081100052E702A8FFF7B6FE034600287FF44CAFF3
:1081200023880322FA54238801339BB22380192227
:10813000FA54238801339BB22380BDF80820F91834
:10814000FA54120A4A7023880233238074E7228883
:10815000D11CB14201D90C232EE70221B954228847
:10816000013292B222800121B95422880A4492B28B
:108170002280BB5423880B44238061E793F90010CD
:108180000223BB54238801339BB223800A22FA5472
:10819000238801339BB22380F95423880133238041
:1081A0002B896BB92B8AC3B92B8B1BBB2B6A002B7A
:1081B00000F03E812288911DB14228D90C23FBE6B4
:1081C000019600943B460622022105F10800FFF7C4
:1081D000CAFE03460028E5D0EEE6019600943B4631
:1081E0000722032105F11000FFF7BDFE034600281A
:1081F000DAD0E1E6019600943B461522142105F100
:108200001800FFF7B0FE03460028CFD0D4E6198847
:10821000052901D80723CFE6A1F6814080B24FF2AD
:108220007D3E704501D80723C6E65888052801D849
:108230000723C1E6A0F6814E1FFA8EFE4FF27D3C69
:10824000E64501D80723B7E64FF6FF7E714500F0FB
:10825000D280704500F0CF80814240F2CC8007236D
:10826000AAE6FE2B01D90C23A6E601337B54238812
:1082700001339BB22380FF22FA54238801339BB23F
:108280002380B8F80020F918FA54120A4A7020889E
:10829000023080B22080B8F8042062B1D8F808100B
:1082A000002900F0D680384401F045F82388B8F85A
:1082B00004201344238095F82C3023B92B78002B0D
:1082C0004ED1002378E6D5F82880B8F1000F00F0F1
:1082D000C280B8F804300233FE2B00F2BE804FF0AB
:1082E00000094FF0160A12E009F101095FFA89F955
:1082F00095F82C304B45E1D909EB4908AB6A03EB03
:108300008808B8F804300233FE2B00F2A8802288D7
:108310000133BB54238801339BB2238007F803A0A9
:10832000238801339BB22380B8F80020F918FA544F
:10833000120A4A702088023080B22080B8F80420E7
:10834000002AD1D0D8F80810002900F08A803844DB
:1083500000F0F1FF2388B8F8042013442380C3E71A
:108360002A88012A43D02288901CB04201D90C23CC
:1083700022E6012B06D16B78023313449E4201D2D0
:108380000C2319E6023EB21A96B204A921F8086D30
:108390003844FFF779FD034600287FF40DAE2A78B4
:1083A000022A0AD0012A0ED0ADF808600820BDF8D4
:1083B0000820FE2A0ED90C23FEE5BDF80820B242A3
:1083C000F2D80920F3E76A789642EDD3ADF8082099
:1083D0000820ECE72188551C7D542188013189B2A1
:1083E000218078542A4621880A442280E4E5072324
:1083F000E2E50723E0E50521B9542288013292B273
:1084000022801221B9542288013292B22280198826
:10841000B818B954090A41702288023292B22280F7
:108420005B88B918BB541B0A4B7023880233238026
:10843000D5F82480B8F1000F3FF43DAFB8F8043010
:10844000023321888A1C1A44B2427FF60AAF0C23F9
:10845000B2E50723B0E50723AEE50C23ACE50C231A
:10846000AAE50723A8E530B593B00C461F23ADF865
:108470004630ADF8443038B1C27812F0040F0BD159
:108480000723184613B030BD0025ADF846500CE068
:108490000022ADF8442017E00DF1460209A9FFF7CC
:1084A00080FD03460028ECD109AD002CF0D0E37824
:1084B0000BB10723E5E711AA01A92046FFF771FDDB
:1084C00003460028DDD101AA9DF844309DF84610EE
:1084D0002846FFF7D5FC0346D3E775DF704776DF04
:1084E00070477ADF70477BDF704700001C4B1888AD
:1084F0004FF6FF73984231D000B583B0194A137814
:108500000133DBB21370184A127B9A4210D2002258
:10851000144B1A70144B1B7CABB9134B5B6923B122
:1085200002A8002200F8042D984703B05DF804FB70
:108530000E49FFF7D2FF0028F7D00B4B9B69002BA9
:10854000F3D09847F1E73B21FFF7C9FF0028E4D0BB
:10855000054B9B69002BE0D09847DEE7704700BFD2
:10856000823A0020D03A0020843A0020C83A002005
:1085700000B583B01A4B5B881A4A12889A4203D816
:10858000184A52889A421DD2174B1B7873B9174B61
:108590001B78A3B9164B596800221648F8F7DCFC83
:1085A000C0B1134B9B69ABB1984713E0104B5B69AB
:1085B00083B102A8002200F8042D98470AE00C4B72
:1085C0009968E9E70A4B5B6923B102A8012200F828
:1085D000042D98470022044B1A7003B05DF804FB89
:1085E000C03A0020C83A0020803A0020D03A00204B
:1085F000843A0020A03A002070B50646154C054686
:108600000FCD0FC495E8070084E807000022124B45
:108610001A703168B9B1114C0822204600F08BFE67
:108620002046FFF75EFF034658B94FF6FF720C4B2A
:108630001A8000210B4B19700B4A0C48F8F776FC96
:108640000346184670BD0548FFF74DFF0346002856
:10865000EBD0F6E7843A0020803A0020C83A0020A8
:10866000823A0020D03A0020ED84070098BE07002F
:1086700008B50248F8F7B6FC08BD00BFA03A0020D4
:1086800008B50388112B30D01AD9122B40D0502BAB
:108690002AD1C288224BDB899A4240D1038A022B1D
:1086A0003DD1837C13F0010F2FD11E48F8F79AFCBF
:1086B000002834D01A4B9B69002B30D0984708BD56
:1086C000102B10D18288184B1A80184B183003C811
:1086D00083E803000022164B1A70114BDB89F3B9B3
:1086E000FFF746FF08BD08BD08BD4FF6FF720E4BF1
:1086F0001A8000220E4B1A700A48F8F773FC70B10A
:10870000074B9B695BB1984708BDFFF731FF08BD78
:10871000064B083003C883E80300FFF729FF08BDB4
:10872000843A0020A03A0020823A0020C03A00207B
:10873000D03A0020A0DF7047A2DF7047A5DF704766
:10874000A6DF7047A8DF704763DF7047002800F09E
:108750002A81F0B595B00646002900F027814A68C5
:10876000002A00F025810C464FF6FF730380924BE0
:108770000FAD0FCB85E80F0041F23053ADF84C3010
:108780000DF14E012846FFF7DFFF0346002840F0B9
:108790001081321D13A90120FFF7CCFF03460028EA
:1087A00040F007819DF84E30B3711C22002108A8CB
:1087B000F7F7CEFE9DF8203043F004038DF820300B
:1087C000002509950B950C950D950E95B3798DF8AF
:1087D0000A3041F23253ADF8083001AF0322294686
:1087E0003846F7F7B5FE9DF8043003F0F00365F363
:1087F00007138DF804309DF80530012262F303035E
:1088000062F307138DF805309DF8063062F34203DA
:1088100003F0E70313438DF806301422294603A81A
:10882000F7F796FE02AB03930497ADF81450ADF83A
:1088300016501423ADF81830079506F1080303AA63
:1088400008A9B088FFF778FF0346002840F0B18000
:108850001C22294608A8F7F77BFE9DF8203043F03C
:1088600018038DF8203009950B950C950D950E95F4
:10887000B3798DF80A3041F23153ADF8083001AFC9
:10888000032229463846F7F763FE9DF8043003F0CB
:10889000F00365F307138DF804309DF805300122CD
:1088A00062F3030362F307138DF805309DF8063079
:1088B00062F3420303F0F70343F011038DF806302F
:1088C0001422294603A8F7F743FE02AB039304974B
:1088D000ADF81450ADF816501723ADF818300795C1
:1088E00006F1100303AA08A9B088FFF725FF034685
:1088F00000285ED11C22294608A8F7F729FE9DF81A
:10890000203043F002038DF8203009950B950C952B
:108910000D950E95B3798DF80A3041F23453ADF8C8
:10892000083001AF032229463846F7F711FE9DF8BB
:108930000430012262F3030362F307138DF804305D
:108940009DF8053003F0F00365F307138DF805304B
:108950009DF8063062F3420303F0E70313438DF8FA
:1089600006301422294603A8F7F7F2FD02AB039361
:1089700004970223ADF81430ADF81650ADF8183056
:10898000079406F1200303AA08A9B088FFF7D4FED4
:10899000034670B96268B262A26802B1F262012154
:1089A000064A117005E00E23184670470E2300E0BA
:1089B0000E23184615B0F0BD9CBE0700D13A00202A
:1089C000002833D070B586B0044600884FF6FF7299
:1089D00090422DD0174A127812B9082006B070BD07
:1089E000154D10222A7007236B700126AE70E970B6
:1089F000080A287121FA02F06871090EA971ADF810
:108A00000630002102A8F7F7A3FD238AADF808304D
:108A10008DF80A600023ADF80C300DF106030493C5
:108A2000059502A92088FFF78BFED7E70E20704737
:108A30000820D3E7D13A0020D43A002088B330B5DB
:108A400087B0044600884FF6FF7290422BD0174A39
:108A5000127812B9082007B030BD154D11232B70C4
:108A600069700B0AAB700B0CEB70090E29710523B2
:108A7000ADF806301022002102A8F7F769FD238A1D
:108A8000ADF8083001238DF80A300023ADF80C3022
:108A90000DF106030493059502A92088FFF750FE07
:108AA000D9E70E2070470820D5E700BFD13A002053
:108AB000D43A002068B330B587B0034604884FF637
:108AC000FF70844227D01548007810B9082007B0FD
:108AD00030BD1C461346124D10222A7069700321C6
:108AE000ADF80610AB70002102A8F7F731FD238A1C
:108AF000ADF8083001238DF80A300023ADF80C30B2
:108B00000DF106030493059502A92088FFF718FECE
:108B1000DDE70E2070470820D9E700BFD13A0020DA
:108B2000D43A0020002800F0FE8070B588B00546D9
:108B3000002951D0866A002E4ED00B88112B5CD0B4
:108B400046D90C46502B49D0512B45D18B79022B5D
:108B500042D10A89038A9A423ED18B7B043BDBB225
:108B6000022B39D902268DF810609DF8163043F09B
:108B700001038DF816300B8AADF818304B8AADF82A
:108B80001A3001F1140307930822002101A8F7F716
:108B9000DFFCADF804600023ADF80630CDF808D056
:108BA00001AAA98A2888FFF7C9FD50B3EB6A03B16F
:108BB000984740F2FD13ADF8143004A92888FFF758
:108BC000C1FD034643B1EA6A32B11846904703E05B
:108BD000102B01D18B88038008B070BDCA8803892F
:108BE0009A42F9D108238DF810300B8A8DF818308D
:108BF0001234059404A9B047EEE74FF6FF730380E3
:108C0000EAE79DF8003013F0010FD2D00023ADF851
:108C1000143004A92888FFF795FD03460028D2D117
:108C2000217D4B1E072B78D8DFE803F0041B323A76
:108C3000424A6F5200238DF80430638A012B09D910
:108C400001238DF80C3015340294AB6A01A9284633
:108C50009847C1E7062201212846FFF72BFF03466C
:108C6000B0E701238DF80430638A012B09D9012371
:108C70008DF80C3015340294AB6A01A92846984748
:108C8000AAE7062202212846FFF714FF034699E7C8
:108C900008A9022301F81C3DAB6A284698479BE7C8
:108CA00008A9032301F81C3DAB6A2846984793E7BF
:108CB00008A9042301F81C3DAB6A284698478BE7B6
:108CC00008A9052301F81C3DAB6A2846984783E7AD
:108CD000638A022B0ED9A27D637D43EA0223ADF89D
:108CE000083073B907238DF80430AB6A01A9284610
:108CF000984771E7032208212846FFF7DBFE034669
:108D000060E706238DF80430EFE708A9092301F88E
:108D10001C3DAB6A284698475EE703222846FFF7CA
:108D2000C9FE03464EE770479E4B1B78062B28D0A2
:108D30009C4B1B78062B48D09A4B1B78062B61D096
:108D4000984B1B78062B75D0974AD2F8883043F49D
:108D50007003C2F88830BFF34F8FBFF36F8F4FF0AF
:108D60001023D3F80032002BC0F2B8804FF010234C
:108D7000D3F80432002BC0F2B1808C4A8C4B1A60BD
:108D800070478C4B1B6813F00F0F0DD18A4B1B687B
:108D900003F0F003302B07D1884A894B1A60814BCE
:108DA0001B78062B40F0D780824B1B6813F00F0F07
:108DB0000BD1814B1B6803F0F002302A00F0BF801A
:108DC00003F0E003402B00F0BA807A4B1B6813F0ED
:108DD0000F0F06D1784B1B6803F0F003302B00F027
:108DE000B580744B1B6813F00F0F0BD1724B1B68CF
:108DF00003F0F002302A00F0B48003F0E003402BCF
:108E000000F0AF806B4B1B6813F00F0F06D16A4B5D
:108E10001B6803F0F003302B00F0AD80654B1B683E
:108E200013F00F0F06D1644B1B6803F0F003302BD7
:108E300000F0AA805F4B1B6813F00F0F84D15E4BCC
:108E40001B6803F0F003502B7FF47EAF4FF080528D
:108E5000D2F804145B4BC3F82015D2F80814C3F8F9
:108E60002415D2F80C14C3F82815D2F81014C3F83E
:108E70002C15D2F81414C3F83015D2F81814C3F80E
:108E80003415D2F81C14C3F84015D2F82014C3F8D6
:108E90004415D2F82414C3F84815D2F82814C3F89E
:108EA0004C15D2F82C14C3F85015D2F83014C3F86E
:108EB0005415D2F83414C3F86015D2F83814C3F836
:108EC0006415D2F83C14C3F86815D2F84014C3F8FE
:108ED0006C15D2F84424C3F8702535E701223A4BCB
:108EE000C3F80425D3F80024002AFBD015224FF044
:108EF0001023C3F80022344BD3F80024002AFBD0FF
:108F000015224FF01023C3F804222F4BD3F800246E
:108F1000002AFBD000222C4BC3F80425D3F80024F0
:108F2000002AFBD0BFF34F8F1F49CA6802F4E062EA
:108F3000264B1343CB60BFF34F8F00BFFDE7244B9D
:108F40001B68C3F34233234A1360F1E6224AD36815
:108F500023F08073D360134B1B78062B3FF441AF93
:108F60000CE04FF080430022C3F80C21C3F810211D
:108F7000C3F83825E0E60322184B1A60094B1B782A
:108F8000062B3FF44BAFDFE60522154B1A6001229A
:108F900078331A600022703B1A603F22043B1A604B
:108FA000CEE600BFE00F00F000ED00E00090D0033F
:108FB0009C260020E40F00F0E80F00F00DF0ADBAA1
:108FC00074C0074000C0004000E001400400FA0502
:108FD000440200103C050040F0ED00E0A005004018
:108FE0001056004052DF704710DF704760DF704757
:108FF00061DF704708B5F7F7DFFA08BD224B1B7831
:10900000002B40D02DE9F04383B003F0FF081F4B45
:109010001C68B4FA84F464091D4B1D68B5FA85F523
:109020006D091C4F1C4E994609E001A8FFF7DAFFB5
:1090300005281BD0A8B1F7F795FA1DB104BB002C89
:10904000F3D0EDB902A93B8821F8043D35682846E4
:10905000FFF7CEFF052810D050B1F7F783FA0025AF
:10906000EDE70A4B1B6801989847E6E74446E4E7BA
:109070002846D9F800309847F1E70CB94546DEE7B5
:1090800003B0BDE8F0837047E83A0020EC3A0020D6
:10909000E03A0020DC3A0020F03A0020F8B505461E
:1090A0000C4617461E46FBF7DFFC002C2FD014F0B1
:1090B000030F02D007231846F8BD194B1C60194B4B
:1090C0001F80194B1E6019492846FFF78DFF034684
:1090D0000028F0D10121164A1170164A92F8162381
:1090E0005209911EC9B2052913D8043AD2B2012AF5
:1090F00012D9114A926822B94FF480010D4A1160C9
:10910000D9E70D490A6842F480020A60D3E70723D1
:10911000D1E742F20203CEE742F20203CBE700BFFF
:10912000F03A0020DC3A0020E43A0020F58F0700F6
:10913000E83A002000E100E07C3B002018B1034A3F
:109140001060002070470E20704700BFE03A0020FA
:1091500018B1034A1060002070470E20704700BF0E
:10916000EC3A002008B5064B1B682BB1984700B9B4
:1091700008BDF7F7F7F908BDFFF740FFF8E700BFB4
:10918000E43A002070B505460E461446142200212C
:109190002046F7F7DDF90123238000222261237B9B
:1091A00062F300032373267265720DB10123A3726B
:1091B000002070BD30B583B00546174B0093009A70
:1091C00002AC44F8042D15490020FBF779FC214638
:1091D0002846FFF70BFF0446019A009B9A4213D0E2
:1091E0004FF08053D3F80C510D490020FBF768FC79
:1091F000019BC3EB852303F100520A490020FBF7D2
:109200005FFC204603B030BD0028FAD00246064974
:109210000020FBF755FCFEE7E0250020ACBE070070
:10922000D0BE07000CBF070034BF070008B511B956
:10923000FFF7E4FE08BD0020F7F794F9F8E7000017
:1092400008B5034A00210846F7F7E6F908BD00BF54
:109250002D920700094B1EF0040F1CBFEFF309808D
:109260001847EFF308800649064A884201D8904221
:1092700002D88D464FF00000184700BFC592070086
:1092800000EF002000CF002080B400AFBFF34F8F6D
:109290000549054BDB6803F4E062044B1343CB60E4
:1092A000BFF34F8F00BFFDE700ED00E00400FA05BB
:1092B00080B582B000AF7860FFF7E6FF00BF0837E7
:1092C000BD4680BD80B582B000AF78607868FFF79A
:1092D000EFFF00BF0837BD4680BD00000649074AC2
:1092E000074B9B1A03DD043BC858D050FBDCFFF74B
:1092F0001BFDF7F7BBF8000024C10700E0250020A4
:1093000018280020FEE7FEE7FEE7FEE7FEE7FEE79F
:10931000FEE7FEE7FEE7FEE710B5013902449042A2
:1093200001D1002010BD10F8013B11F8014FA342FC
:10933000F5D0181B10BD10B5431E0A44914200D150
:1093400010BD11F8014B03F8014FF7E70CB430B52D
:10935000174B0C1E9DB01D6808DA8B232B604FF055
:10936000FF301DB0BDE8304002B070474FF40273CB
:10937000ADF8143014BF04F1FF3323460493079370
:109380004FF6FF7302900690ADF81630209A21AB8D
:1093900002A92846019300F0D1F8431CBCBF8B23DF
:1093A0002B60002CDDD0029B00221A70D9E700BF91
:1093B000E02500200EB430B59CB01FAC4FF4017214
:1093C00054F8045BADF814200290069000F026F8E3
:1093D0000B4B039007900B930A48019400230F93C3
:1093E00014934FF6FF73ADF816302A46234602A9B0
:1093F000006800F0F1F91CB0BDE8304003B07047E0
:1094000009940700E025002000207047034611F86A
:10941000012B03F8012B002AF9D17047034613F8FA
:10942000012B002AFBD1181A0138704710B56AB118
:109430000139841810F8013B11F8012F934203D130
:10944000A04201D0002BF5D1981A10BD104610BDD6
:10945000F0B5037833B1034618465E1C1B7833B968
:109460001846F0BD0B78002B18BF0020F0BD4D1E34
:10947000441E15F8012F002AF3D014F8017F9742FB
:109480003346F6D0E8E72DE9F0478E689E428246E3
:109490000C469146984635D88A8912F4906F31D09F
:1094A000256809696F1A6569022305EB450595FB77
:1094B000F3F508F101033B449D4238BF1D465305B7
:1094C00031D5294601F034F8064650B90C23CAF8C4
:1094D0000030A38943F04003A3814FF0FF30BDE883
:1094E000F0873A462169FFF726FFA38923F49063AA
:1094F00043F08003A381266165613E44ED1B266035
:10950000A5604646464528BF46463246494620683D
:1095100000F0A6FFA3689B1BA36023681E4426607F
:109520000020BDE8F0872A4601F060F806460028D2
:10953000E1D12169504600F0ADFFC7E72DE9F04FBA
:109540009DB0804603938B891C060D4616460FD5A9
:109550000B696BB9402100F0EBFF2860286128B946
:109560000C23C8F800304FF0FF30C5E040236B619A
:109570000023099320238DF8293030238DF82A30D9
:109580004FF0010B37463C4614F8013B002B3CD111
:10959000B7EB060A0BD05346324629464046FFF742
:1095A00072FF013000F0A380099B534409933B787C
:1095B000002B00F09C8000234FF0FF3204930793B0
:1095C000059206938DF853301A930522217850485E
:1095D00000F0F6FE671C049BD8B9D90644BF2022D0
:1095E0008DF853201A0744BF2B228DF85320227880
:1095F0002A2A16D0079A00210A20274601343B78F0
:10960000303B092B51D9C9B111E0252BC0D02746D9
:10961000B9E73F4A801A0BFA00F0184304903C4621
:10962000D3E7039A111D12680391002A01DB079208
:1096300004E0524243F00203079204933B782E2B3E
:109640000ED17B782A2B07F1010132D1039B1A1D21
:109650001B680392002BB8BF4FF0FF33023705930E
:109660002C4C39780322204600F0AAFE38B1402362
:10967000001B03FA00F0049B03430493013739787D
:1096800025488DF8281006227E1C00F099FE00283F
:1096900035D0224BFBB9039B073323F00703083374
:1096A0000393099B4B4409936CE700FB02320121B1
:1096B000A3E70023059318460A240F4601313A78A0
:1096C000303A092A03D9002BCAD00590C8E704FB19
:1096D00000200123F1E703AB00932A46104B04A9B5
:1096E0004046AFF30080B0F1FF3F8146D9D1AB894E
:1096F0005B063FF538AF09981DB0BDE8F08F03ABAE
:1097000000932A46064B04A9404600F02FFAEAE7E8
:1097100050BF070056BF07005ABF070000000000F7
:109720008794070038B54B1C144603D14FF0FF3522
:10973000284638BD938923F020039381536B5268E8
:10974000CDB28BB1A36B9A4208DA23685A1E22600D
:1097500003F8015C636801336360E9E7214600F0C8
:10976000CFFD0028F1D0E1E72169236851B199428A
:1097700008D213F8011C8D4204D1013B0132236051
:109780006260D5E7E36304F1440363630323A363E7
:109790002346226403F8465F23600123DCE710B50B
:1097A0000C46496B69B104F14403994201D000F0C1
:1097B00071FE236C63600020606313B1E36B236070
:1097C00010BD2369236000236360A38943F0200355
:1097D000A3814FF0FF3010BD2DE9F04FADF5257D91
:1097E0000DF10C080193002346934793A04BA293DD
:1097F000DFF884929F4BCDF8208106460C46A39358
:1098000092460A279AF80030002B00F02F8100F0D2
:10981000B5FD9AF800B05844437813F0080343D1DB
:10982000BBF1250F0AF1010540F099804593439360
:109830009AF801302A2B03D1102343930AF1020531
:109840002978A1F13002092AAA4605F1010541D97A
:109850000322894800F0B4FD38B1A0EB09030120D0
:109860009840439B18434390AA469AF80030672BD0
:109870000AF101054AD8652B80F0B780472B2FD815
:10988000452B80F0B280002B00F08280252B66D023
:1098900003234993449745E0479901314791616813
:1098A00001330139616023606368002B0BDD00F038
:1098B00065FD23681978084441780D07ECD40AF156
:1098C0000105AA469EE7A39B2146304698470028FB
:1098D000EDD0F4E7459B07FB0313303B4593AFE71F
:1098E0005B2B61D00CD8582BD2D1439A42F4007232
:1098F0004392102244926F2BB4BF0323042310E041
:10990000632B5CD0642BC3D14497F4E7702B42D017
:109910001DD86E2B59D043D8692BB9D1002344935D
:10992000032349936368002B61DD439B59066FD580
:10993000499B022B7CDC01AB224643A9304600F058
:1099400035FA012800F092800228BAD11DE0752B6B
:10995000DAD0782BC9D0732B9AD10223E1E7636860
:10996000002B0CDD23681A7893457FD101336268A0
:109970002360479B013A013362604793A1E7A39BB1
:109980002146304698470028ECD04698002863D1FD
:109990004FF0FF3066E0439A42F020024392A4E782
:1099A000082344930423BCE72946404600F056FBB5
:1099B000439B43F04003439305460123B1E7439B98
:1099C00043F0400343930023ABE7439AD0063FF5AF
:1099D00078AF12F0010F019A479B02F10401019147
:1099E000126814BF138013606BE7052399E7A39BEC
:1099F000214630469847002897D0C6E7479A01325B
:109A000047926268013A002A62600ADD01332360EE
:109A100000F0B4FC23681A78104442781207EDD4A1
:109A200086E7A39B2146304698470028F0D0ACE754
:109A3000042B06DC01AB224643A9304600F01AFA9B
:109A40007FE70E4B002B3FF43CAF01AB224643A90E
:109A50003046AFF3008074E7A38913F0400F18BFBE
:109A60004FF0FF300DF5257DBDE8F08F4698F9E702
:109A7000259707009F97070056BF070000000000CA
:109A80002DE9F04791461F468A680B69DDF8208072
:109A90009342B8BF1346C9F8003091F843200646F8
:109AA0000C4612B10133C9F800302368990642BF51
:109AB000D9F800300233C9F80030256815F00605E2
:109AC00007D104F1190AE368D9F800209B1A9D42D6
:109AD00029DB94F843302268003318BF0123920633
:109AE0002ED404F1430239463046C047013021D01C
:109AF0002368E568D9F8002003F00603042B08BFAB
:109B0000AD1AA36822690CBF25EAE57500259342CA
:109B1000C4BF9B1AED184FF000091A344D451BD1F4
:109B20000020BDE8F0870123524639463046C04741
:109B3000013003D14FF0FF30BDE8F0870135C2E7B7
:109B4000E1185A1C302081F84300224494F8451053
:109B500082F843100233C4E70123224639463046D7
:109B6000C0470130E6D009F10109D7E72DE9F043FC
:109B700017460A7E85B06E2A984606460C460C9B10
:109B800001F1430E00F0BC801AD8632A2ED00AD807
:109B9000002A00F0C880582A00F08A8004F14205AB
:109BA00084F842202AE0642A01D0692AF6D121688B
:109BB0001A6811F0800F23D0111D1960136827E077
:109BC000732A00F0B48008D86F2A2AD0702AE5D111
:109BD0000A6842F020020A6003E0752A21D0782A40
:109BE000DCD1782284F845206E4964E01A6801F1DE
:109BF0004205111D1960136884F842300123A3E067
:109C000011F0400F02F104011960D7D0B2F9003011
:109C1000002B03DA2D225B4284F8432062490A229A
:109C200017E02068196810F0800F03D0081D186035
:109C30000B6806E010F0400F01F104001860F7D047
:109C40000B8859496F2A14BF0A220822002084F881
:109C500043006568A560002DC0F29C80206820F05C
:109C600004002060002B3FD1002D40F09580754608
:109C7000082A0BD12368DA0708D5236962689A425B
:109C8000DEBF302305F8013C05F1FF35AEEB0503DF
:109C90002361CDF800803B4603AA21463046FFF7FA
:109CA000EFFE013055D14FF0FF3005B0BDE8F08335
:109CB00081F845203C492268186812F0800F00F1B5
:109CC00004051D6001D0036802E05506FBD503883A
:109CD000D00744BF42F0200222601BB9226822F064
:109CE000200222601022B1E77546B3FBF2F002FBBE
:109CF0001033CB5C05F8013D03460028F5D1B7E7EA
:109D000008681A68496910F0800F04D0101D1860A7
:109D10001368196007E010F0400F02F104001860AA
:109D20001368F6D01980002323617546B1E71A68DD
:109D3000111D1960156862680021284600F040FB7B
:109D400008B1401B606063682361002384F84330DE
:109D50009FE723692A4639463046C0470130A2D0E2
:109D600023689B0707D5002504F11909E368039AC6
:109D70009B1A9D4205DBE068039B9842B8BF1846DA
:109D800093E701234A4639463046C04701308AD01E
:109D90000135EBE7002BA7D10B7884F8423004F1B2
:109DA000420565E772BF070061BF07002DE9F0417A
:109DB00015468A6880460C4632B98A69002A0CBF6B
:109DC00001224FF0FF328A602268D1065FBF1A6815
:109DD000111D196017680026A369DBB1012B07D19B
:109DE0002B6862691B78D35CA3B9002E32D106E0E0
:109DF000022B07D0002E2DD1A369012B2AD10120DF
:109E0000BDE8F08100F0BAFA2B681B78184443785B
:109E10001B07EFD42368DA065EBF2B681B783B7004
:109E20002A686B6802F101022A60A26803F1FF331D
:109E300002F1FF326B6006F1010658BF0137A260E4
:109E400042B1002BC8DCD4F88031294640469847FF
:109E50000028C1D0236813F0100305D1E268013255
:109E6000E260A26902B13B7023691E4426610020B2
:109E7000BDE8F0812DE9F04F9A46744B0C468346BD
:109E8000164693E8070087B003ABA76883E807008E
:109E90006F4BA1696F4A032918BF1A467B1EB3F5A1
:109EA000AE7F84BF40F25D13A3602368009243F449
:109EB000506388BF6FF4AE7504F11C0923608CBF3A
:109EC0007F1900274B464FF000080193316803AB20
:109ED000022253F82800097800F072FA019B28B397
:109EE000B8F1010F56D162682AB90822626022686F
:109EF00042F400722260226822F4A0622260A2680A
:109F0000511EA16092B13268511C316012781A70F2
:109F10005D1C7368013B002B736006DCD4F8803154
:109F2000314658469847002876D12B4608F101085B
:109F3000B8F1030FC9D162680AB90A226260626887
:109F4000454960690193891A00F088F8019B4FF038
:109F500000081D46A368002B38D0316860690A7874
:109F6000805C002832D0302A226821D110051FD50C
:109F700008F1010817B10133013FA3607368013B89
:109F8000002B73601BDD336801333360A368013B32
:109F9000A360DFE7B8F1020FB1D1226802F4C0611B
:109FA000B1F5007FC2D11021616042F48072A5E753
:109FB00022F4106222600B782B700135DEE7D4F8B2
:109FC00080313146584698470028DFD02368D905AC
:109FD0000CD54D4508D915F8011CD4F87C31324612
:109FE000584698476F1E3D464D452CD0226812F0CA
:109FF00010021ED12A706368009E49465846B04739
:10A000002268DAF8003012F0200F08D01A1DCAF8C2
:10A0100000201B68186009E04FF00008D6E7D2075F
:10A02000F4D51A1DCAF800201B681880E3680133B4
:10A03000E360A5EB0905A844256945442561002096
:10A0400007B0BDE8F08F0120FAE700BF84BF07002A
:10A05000DDA20700BDA10700A0BF070070B50B7807
:10A060005E2B13BF4A1C8A1C4B78002108BF0121BC
:10A07000441E00F1FF0504F8011FA542FBD113B9EE
:10A08000013A104670BD81F00104C45411460D78A8
:10A090002D2D01F1010206D05D2DF2D00DB90A4639
:10A0A000EFE72B46F1E74E785D2EFAD0B342F8DCAD
:10A0B000023101339E42C454FBDCE8E72DE9F84F3E
:10A0C0008046894692461F468B465D460A9815F89B
:10A0D000014B00F050F92044467816F008060BD1E9
:10A0E0002D2C0BD12C7801260BF1020567B1102F16
:10A0F00014D1302C0AD011E0AB46E6E72B2C04BF7C
:10A100002C780BF10205F1E7302C27D12B7803F0E6
:10A11000DF03582B4BD16C7810270235002E0CBF73
:10A120006FF000414FF000410022B1FBF7FE1046F6
:10A1300007FB1E1CA4F13003092B11D81C46A742B3
:10A140001DDD531C07D0864516D301D1A44513DB72
:10A1500000FB0740012215F8014BEBE70A27DDE77A
:10A16000A4F14103192B01D8373CE8E7A4F16103BE
:10A17000192B04D8573CE2E74FF0FF32EBE7531CB2
:10A1800008D12223C8F800300846BAF1000F07D1E1
:10A19000BDE8F88F06B14042BAF1000F0CD022B1F1
:10A1A000013DCAF80050BDE8F88F4D46F9E730246C
:10A1B000002FB3D10827B1E7BDE8F88F37B5064CBB
:10A1C000064D2468246A002C08BF2C460094FFF733
:10A1D00075FF03B030BD00BFE0250020A0260020A1
:10A1E0002DE9F0478046894692461E460F463D4679
:10A1F000089815F8014B00F0BEF82044437813F09E
:10A2000008030AD12D2C0AD12C780123BD1C5EB184
:10A21000102E13D1302C09D010E02F46E7E72B2C5D
:10A2200004BF2C78BD1CF2E7302C25D12A7802F02F
:10A23000DF02582A4AD16C78102602354FF0FF31E0
:10A240000027B1FBF6F106FB01FE6FEA0E0E384661
:10A25000A4F13002092A11D81446A6421DDD002FB0
:10A2600018DB814216D301D1A64513DB00FB064063
:10A27000012715F8014BEBE70A26DFE7A4F14102BD
:10A28000192A01D8373CE8E7A4F16102192A04D859
:10A29000573CE2E74FF0FF37EBE7002F09DA2223C4
:10A2A000C8F800304FF0FF30BAF1000F07D1BDE819
:10A2B000F08703B14042BAF1000F0CD027B1013D45
:10A2C000CAF80050BDE8F0874D46F9E73024002E6B
:10A2D000B4D10826B2E7BDE8F087000037B5064CD8
:10A2E000064D2468246A002C08BF2C460094FFF712
:10A2F00077FF03B030BD00BFE0250020A02600207E
:10A300002DE9F0410C46496B04F1440399421ED1FA
:10A310004FF4806100F00CF918B94FF0FF30BDE840
:10A32000F0814FF48063A36394F84630606380F853
:10A33000FF3394F8453080F8FE3394F8443080F8C9
:10A34000FD3300F2FD3020600020BDE8F081A66BF7
:10A3500077003A4600F04AF905460028DDD000EBC8
:10A360000608014632464046FEF7E5FFC4F8008085
:10A370006563A763E8E7D0F8EC007047044B054A33
:10A380001B681B6A002B08BF1346D3F8EC0070470C
:10A39000E0250020A026002082B001B901A942B129
:10A3A0004BB113780B601278101C18BF012002B05B
:10A3B00070471046FBE76FF00100F8E7000000006F
:10A3C00001F0FF01102A2BDB10F0070F08D010F866
:10A3D000013B013A8B422DD010F0070F42B3F6D16A
:10A3E000F0B441EA012141EA014122F007047FF083
:10A3F00000070023F0E80256083C85EA010586EADA
:10A40000010685FA47F5A3FA87F586FA47F6A5FA15
:10A4100087F68EB9EED1F0BC01F0FF0102F0070221
:10A4200032B110F8013B013A83EA010313B1F8D1CC
:10A430000020704701387047002D06BF35460338AD
:10A44000073815F0010F07D1013015F4807F02BFE6
:10A45000013015F4C03F0130F0BC0138704700BF37
:10A46000884210B501EB020303D8421E99420CD179
:10A4700010BD9842F9D28118D21AD34200D110BD32
:10A4800013F8014D01F8014DF7E711F8014B02F8FF
:10A49000014FEBE738B50546002945D051F8043C9B
:10A4A0000C1F002BB8BFE41800F0E3F81F4A136834
:10A4B000104633B9636014602846BDE8384000F0A8
:10A4C000D9B8A3420CD921686218934204BF1A6814
:10A4D0005B68636004BF521822600460ECE71346B7
:10A4E0005A680AB1A242FAD919685818A0420BD189
:10A4F00020680144581882421960DDD11068526802
:10A500005A6001441960D7E702D90C232B60D3E7C6
:10A51000206821188A4204BF11685268626004BF33
:10A52000091821605C60C7E738BD00BFF43A00201D
:10A5300070B5CD1C25F0030508350C2D38BF0C2552
:10A54000002D064601DBA94203D90C23336000200D
:10A5500070BD00F08EF8234A1468214691B9224C50
:10A5600023681BB9304600F067F820602946304662
:10A5700000F062F8431C26D10C233360304600F013
:10A5800079F8E4E70B685B1B1AD40B2B0FD90B602F
:10A59000CD50CC18304600F06DF804F10B00231DAF
:10A5A00020F00700C31A1BD05A42E25070BD8C4203
:10A5B0000DBF63684B686360136018BF0C46E9E722
:10A5C0000C464968CAE7C41C24F00304A04205D025
:10A5D000211A304600F030F80130CDD02560D9E79F
:10A5E00070BD00BFF43A0020F83A0020F8B50746E5
:10A5F00014460E4621B91146BDE8F840FFF798BF52
:10A6000022B9FFF747FF25462846F8BD00F033F88A
:10A6100084420FD921463846FFF78AFF05460028B5
:10A62000F2D031462246FEF786FE31463846FFF725
:10A6300031FFE9E73546E7E738B5064C0023054624
:10A640000846236000F020F8431C02D1236803B1C0
:10A650002B6038BD883B002049B1FF2A85BF8A2383
:10A6600003600A704FF0FF3098BF01207047084622
:10A6700070477047704751F8040C0028A0F104009F
:10A68000BCBF0B58C0187047044A05491368002B1B
:10A6900008BF0B461844106018467047FC3A00206B
:10A6A000903B0020F8B500BFF8BC08BC9E46704740
:10A6B000F8B500BFF8BC08BC9E467047E4250020F2
:10A6C0002025303878202C2025303878205D0D0A60
:10A6D00000000000A42800204466755461726700E1
:10A6E000060708FF06FF0000000000400000000011
:10A6F00002000000030000001C0000001B0000001E
:10A7000000000000000000000000D601060100006B
:10A710000C0000000D000000000098010600000081
:10A720005465726D696E616C0000000052545400F3
:10A7300053454747455200003031323334353637C0
:10A7400038394142434445464E6F726D616C00009A
:10A75000496E707574000000666C6173685F6572A5
:10A760006173655F626C6F636B000000666C6173A0
:10A77000685F777269746500666C6173685F696EA3
:10A7800069740000466C617368204D414E5B253052
:10A7900032785D2049445B253032785D0D0A000037
:10A7A0004552524F523A20466C6173682077726965
:10A7B0007465206E6F7420656E61626C6564212023
:10A7C0005B414444522025755D205B25733A257515
:10A7D0005D0D0A004552524F523A20466C61736833
:10A7E00020777269746520696E2070726F67726578
:10A7F00073732120205B25733A25755D0D0A0000D7
:10A800004552524F523A20466C61736820496E6936
:10A81000742829206661696C6564215B25733A257B
:10A82000755D0D0A000000004552524F523A204912
:10A830006E76616C696420627566666572206C650F
:10A840006E677468206F662025752120205B257354
:10A850003A25755D0D0A00004552524F523A204983
:10A860006E766C69642077726974652061646472C5
:10A87000657373202825307825303878292065784D
:10A880006365656473204D41585F414444524553AC
:10A8900053202825307825303878292120205B2541
:10A8A000733A25755D0D0A004552524F523A2041C8
:10A8B000646472657373202B20627566666572200E
:10A8C0006C656E6774682065786365656473207075
:10A8D0006167652073697A652120205B25733A25BD
:10A8E000755D0D0A000000004552524F523A204655
:10A8F0006C617368207772697465206E6F7420656F
:10A900006E61626C65642120205B25733A25755D5C
:10A910000D0A00007B0000007D0D0A004F4B0D0A60
:10A92000000000005741524E3A206275666665721B
:10A93000206F76657272756E2064657465637465E8
:10A940006420696E206D6F64656D556172745F631C
:10A950006D6452657370210D0A0000000D0A00003D
:10A960004552524F523A20556E6B6E6F776E20658E
:10A9700076745F7479706520282564292072656378
:10A98000656976656420627920756172745F6361C0
:10A990006C6C6261636B28290D0A000055415254AA
:10A9A00020656E61626C65642E0D0A005741524E3F
:10A9B0003A205541525420616C726561647920657A
:10A9C0006E61626C65642E0D0A00000055415254A0
:10A9D0002064697361626C65642E0D0A00000000DA
:10A9E0005741524E3A205541525420616C72656174
:10A9F00064792064697361626C65642E0D0A0000DD
:10AA00004552524F523A204661696C656420746F1A
:10AA100020636C656172206F757470757473206F3C
:10AA200066204D435032333030382028493243209D
:10AA3000616464723A203078253032582C20706975
:10AA40006E733A20307825303258290D0A00000004
:10AA50004552524F523A204661696C656420746FCA
:10AA6000207175657279207472692D7374617465D3
:10AA70002070696E73206F66204D43503233303042
:10AA800038202849324320616464723A20307825A6
:10AA9000303258290D0A00004552524F523A204692
:10AAA00061696C656420746F2072656164204D4338
:10AAB0005032333030382070696E73202849324369
:10AAC00020616464723A20307825303258290D0AAA
:10AAD000000000004552524F523A204661696C65B1
:10AAE0006420746F20736574206F7574707574734F
:10AAF000206F66204D4350323330303820284932A1
:10AB00004320616464723A203078253032582C201A
:10AB100070696E733A20307825303258290D0A005A
:10AB20004552524F523A204661696C656420746FF9
:10AB3000207472692D73746174652070696E73205E
:10AB40006F66204D4350323330303820284932432D
:10AB500020616464723A203078253032582C20709D
:10AB6000696E733A20307825303258290D0A00007A
:10AB70000C0000000D00000000009801060000001D
:10AB80004C3500204552524F523A204661696C655F
:10AB90006420746F20636C65617220626974732035
:10ABA000696E20493243207265676973746572204B
:10ABB0002849324320616464723A2030782530326B
:10ABC000582C2072656720616464723A20307825C1
:10ABD0003032582C20626974733A20307825303234
:10ABE00058290D0A000000004552524F523A2046A3
:10ABF00061696C656420746F20636F6E6669677548
:10AC000072652049324320696E74657266616365BE
:10AC10000D0A00004552524F523A204661696C6558
:10AC20006420746F2072656164204932432072652C
:10AC300067697374657220284932432061646472C5
:10AC40003A203078253032582C20726567206164B4
:10AC500064723A20307825303258290D0A000000FD
:10AC60004552524F523A204661696C656420746FB8
:10AC700020736574206269747320696E20493243C1
:10AC800020726567697374657220284932432061B8
:10AC90006464723A203078253032582C207265670F
:10ACA00020616464723A203078253032582C20625A
:10ACB0006974733A20307825303258290D0A000023
:10ACC0004552524F523A204661696C656420746F58
:10ACD00020696E697469616C697A652063656C6C62
:10ACE000206D6F64656D20686172647761726520A4
:10ACF000696E746572666163652E0D0A000000005E
:10AD00004552524F523A204661696C656420746F17
:10AD100020656E61626C652043656C6C206D6F64AC
:10AD2000656D20706F7765722E0D0A004552524F87
:10AD3000523A204661696C656420746F20646973BF
:10AD400061626C652063656C6C206D6F64656D205D
:10AD5000706F7765722E0D0A000000004552524F49
:10AD6000523A204661696C656420746F2071756584
:10AD70007279207374617465206F662063656C6CF2
:10AD8000206D6F64656D20706F7765722E0D0A00FF
:10AD90004552524F523A204661696C656420746F87
:10ADA0002073656E642069676E6974696F6E2073C5
:10ADB00069676E616C2E0D0A000000004552524F0B
:10ADC000523A204661696C656420746F2072656137
:10ADD000642063656C6C206D6F64656D20737461B5
:10ADE0007475732E0D0A00004552524F523A204698
:10ADF00061696C656420746F2073656E6420656D95
:10AE0000657267656E637920726573657420736916
:10AE1000676E616C20746F206D6F64656D2E0D0A16
:10AE20000000000041540D004F4B0D0A00000000CF
:10AE30004552524F523A204D6F64656D20756E72C7
:10AE40006573706F6E73697665210D0A00000000EE
:10AE50004552524F523A204D6F64656D2069676EBE
:10AE60006974696F6E207369676E616C20666169D1
:10AE70006C6564210D0A00005E53595353544152CE
:10AE8000540000004552524F523A204D6F64656D98
:10AE9000206661696C656420746F20747261702033
:10AEA0005E535953535441525420555243210D0A75
:10AEB0000000000053656E64696E672041545E5364
:10AEC0004D534F20636F6D6D616E640D0A0000007D
:10AED00041545E534D534F0D000000005E534D53DF
:10AEE0004F3A204D53204F46460000004552524FE6
:10AEF000523A204661696C656420746F20747261F7
:10AF000070205E534D534F20555243210D0A0000CF
:10AF10004552524F523A204D6F64656D206661690B
:10AF20006C656420746F2073687574646F776E202D
:10AF30007669612041545E534D534F210D0A000044
:10AF40004552524F523A20556E61626C6520746FC3
:10AF50002072656D6F766520706F776572210D0ABE
:10AF6000000000004D6F64656D20706F776572653D
:10AF70006420646F776E2E0D0A00000050657266C3
:10AF80006F726D696E672067656E6572616C206DAA
:10AF90006F64656D20636F6E666967757261746951
:10AFA0006F6E0D0A0000000041542B4346554E3D84
:10AFB000310D00004552524F523A204661696C658E
:10AFC0006420746F20707574206D6F64656D2069E6
:10AFD0006E746F2066756C6C20736572766963653C
:10AFE000206D6F6465210D0A0000000041545E531E
:10AFF0004346473D224750494F2F6D6F64652F46AA
:10B000005352222C22737464220D00004552524F79
:10B01000523A204661696C656420746F20656E61E8
:10B02000626C65206D6F64656D2773206661737453
:10B030002073687574646F776E2070696E0D0A00F6
:10B0400041545E534346473D225463702F57697401
:10B050006855524373222C226F6E220D00000000AF
:10B060004552524F523A204661696C656420656EC4
:10B0700061626C65205443502055524373206D6FBC
:10B0800064650D0A0000000041542B4345524547BA
:10B090003F0D00002B43455245473A00252A5B5E91
:10B0A0002C5D2C25750000004552524F523A204627
:10B0B00061696C656420746F2070617273652072C1
:10B0C0006573756C74206F662041542B434552455F
:10B0D000473F20636F6D6D616E640D0A00000000D4
:10B0E0004552524F523A204661696C656420746F34
:10B0F00020657865637574652041542B434552453E
:10B10000473F20636F6D6D616E640D0A00000000A3
:10B1100041542B43455245473D310D004552524F56
:10B12000523A204661696C656420746F20656E61D7
:10B13000626C65202B4345524547205552430D0A0A
:10B14000000000002B43455245473A2031000000E3
:10B150004552524F523A204661696C656420746FC3
:10B160002074726170202B4345524547205552434D
:10B17000210D0A0041545E534943413D312C330DAA
:10B18000000000004552524F523A204661696C65FA
:10B190006420746F20657865637574652041542B55
:10B1A000534943413D312C3320636F6D6D616E64B3
:10B1B0000D0A000041545E534943413F0D00000019
:10B1C0005E534943413A20332C0000004552524F10
:10B1D000523A204661696C656420746F2070617218
:10B1E000736520726573756C74206F662041545EC0
:10B1F000534943413F20636F6D6D616E640D0A00DA
:10B200004552524F523A204661696C656420746F12
:10B2100020657865637574652041545E53494341E8
:10B220003F20636F6D6D616E640D0A0041545E5383
:10B230004943533D332C22444E5332222C22313881
:10B240002E37302E302E313630220D004552524FDF
:10B25000523A204661696C656420746F2061737393
:10B2600069676E205072696D61727920444E532077
:10B27000536572766572210D0A00000041542B431C
:10B280004750414444520D002B43475041444452DF
:10B290003A20332C22000000252A5B5E225D222505
:10B2A000752E25752E25752E257500004D6F64654C
:10B2B0006D2773206C6F63616C204950206164645A
:10B2C000726573733A2025752E25752E25752E25EA
:10B2D000750D0A004552524F523A204661696C651D
:10B2E0006420746F20706172736520726573756C71
:10B2F00074206F662041542B4347504144445220F0
:10B30000636F6D6D616E640D0A0000004552524F0F
:10B31000523A204661696C656420746F20717565CE
:10B320007279206D6F64656D2773206C6F63616C3B
:10B3300020495020616464726573730D0A00000037
:10B340004552524F523A204661696C656420746FD1
:10B35000206170706C79206D6F64656D7320676516
:10B360006E6572616C20636F6E666967210D0A00FD
:10B370004552524F523A204661696C656420746FA1
:10B38000207265676973746572206D6F64656D20E6
:10B390006F6E206E6574776F726B210D0A0000006E
:10B3A0004552524F523A204661696C656420746F71
:10B3B0002061637469766174652070647020636FC6
:10B3C0006E74657874210D0A0000000041545E53CC
:10B3D0004953533D302C2273727674797065222C58
:10B3E00022736F636B6574220D0000004552524F4B
:10B3F000523A204661696C656420746F20736574ED
:10B40000207365727669636527732074797065208F
:10B41000746F20736F636B65740D0A0041545E5343
:10B420004953533D302C22636F6E6964222C330DD7
:10B43000000000004552524F523A204661696C6547
:10B440006420746F20736574207365727669636518
:10B45000277320636F6E6E656374696F6E20494455
:10B460000D0A000041545E534953533D302C226174
:10B47000646472657373222C22736F636B756470DE
:10B480003A2F2F25733A2573220D00004552524F53
:10B49000523A204661696C656420746F207365744C
:10B4A0002073657276696365206164647265737385
:10B4B0002F706F7274210D0A0000000041545E531A
:10B4C00049534F3D300D00004552524F523A2046ED
:10B4D00061696C656420746F206F70656E207365A0
:10B4E00072766963652070726F66696C650D0A001B
:10B4F0005E534953573A20302C3100004552524F89
:10B50000523A204661696C656420746F20747261E0
:10B5100070205E5349535720555243210D0A0000B5
:10B520004552524F523A204661696C656420746FEF
:10B530002076657269667920736572766963652025
:10B5400070726F66696C650D0A00000041545E53AD
:10B550004953493D300D00004552524F523A204662
:10B5600061696C656420746F2072657175657374B0
:10B5700020736572766963652070726F66696C65A9
:10B5800020737461747573210D0A00005E53495372
:10B59000493A20302C00000041545E534953433D4A
:10B5A000300D00004552524F523A204661696C6599
:10B5B0006420746F20636C6F7365207365727669A5
:10B5C00063652070726F66696C650D0A000000008B
:10B5D0003C5041434B45543E00000000253032783A
:10B5E000000000003C2F5041434B45543E0D0A00E3
:10B5F00041545E534953573D302C25750D000000D2
:10B600005E534953573A20302C2575004552524F0E
:10B61000523A204D6F64656D206661696C656420E7
:10B62000746F207072657061726520666F7220742D
:10B63000782064617461210D0A0000004552524F68
:10B64000523A204D6F64656D206661696C656420B7
:10B6500073656E642064617461210D0A000000004E
:10B660004552524F523A204D6F64656D206D61799D
:10B670002062652077616974696E6720666F722049
:10B68000657863657373206368617273210D0A00C6
:10B690004552524F523A204661696C656420746F7E
:10B6A0002073656E64207061636B6574210D0A0000
:10B6B0005E534953523A00004552524F523A205479
:10B6C000696D656F75742077616974696E6720664E
:10B6D0006F722055445020525820555243210D0A74
:10B6E0000000000041545E534953523D302C323526
:10B6F000360D00005E534953523A20302C000000B2
:10B700004552524F523A204D6F64656D2066616913
:10B710006C656420746F2063617074757265206954
:10B720006E636F6D696E67206279746520636F75F3
:10B730006E74210D0A0000005E534953523A2030C6
:10B74000000000004552524F523A204661696C6534
:10B750006420746F20706172736520726573706FFE
:10B760006E736520746F205349535220636F6D6D63
:10B77000616E64210D0A00004552524F523A204D2D
:10B780006F64656D206661696C656420746F2073F9
:10B79000656E642072657175657374656420627985
:10B7A000746573210D0A00004552524F523A204DE4
:10B7B0006F64656D206661696C6564206578697485
:10B7C0002073656E64696E672064617461210D0A7F
:10B7D000000000004552524F523A204661696C65A4
:10B7E0006420746F2072656365697665207061639B
:10B7F0006B65740D0A0000004552524F523A2049C1
:10B800006E76616C6964206E756D626572206F661C
:10B81000206279746573207265636569766564205A
:10B820006279206D6F64656D210D0A005E53495386
:10B83000523A20302C25750D0A000000005EBCE253
:10B84000613FDD83C29C7E20A3FD1F419DC3217FFC
:10B85000FCA2401E5F01E3BD3E6082DC237D9FC1F0
:10B86000421CFEA0E1BF5D0380DE3C62BEE0025CE4
:10B87000DF81633D7C22C09E1D43A1FF4618FAA4D0
:10B8800027799BC584DA3866E5BB5907DB856739BC
:10B89000BAE406581947A5FB7826C49A653BD987B0
:10B8A000045AB8E6A7F91B45C6987A24F8A6441AA4
:10B8B00099C7257B3A6486D85B05E7B98CD2306E90
:10B8C000EDB3510F4E10F2AC2F7193CD114FADF37C
:10B8D000702ECC92D38D6F31B2EC0E50AFF1134D70
:10B8E000CE90722C6D33D18F0C52B0EE326C8ED064
:10B8F000530DEFB1F0AE4C1291CF2D73CA94762850
:10B90000ABF517490856B4EA6937D58B5709EBB53B
:10B9100036688AD495CB2977F4AA4816E9B7550B2F
:10B9200088D6346A2B7597C94A14F6A8742AC89623
:10B93000154BA9F7B6E80A54D7896B354368656398
:10B940006B696E67204D6F64656D2053746174651B
:10B950002E2E2E0D0A0000004552524F523A20461C
:10B9600061696C656420746F207475726E206F6EEF
:10B97000206D6F64656D210D0A0000004D6F6465D8
:10B980006D206973206F6E2E0D0A00004552524FD4
:10B99000523A204661696C656420746F2074757238
:10B9A0006E20636F6E6E65637420746F206E6574B5
:10B9B000776F726B210D0A003830323100000000C1
:10B9C00035322E32302E3135372E313931000000EC
:10B9D0000D0A436F6E6E65637465640D0A000000A6
:10B9E0000D0A436865636B696E6720666F72206637
:10B9F0002F770D0A000000000D0A526574727969F4
:10BA00006E6720696E2031207365630D0A000000A7
:10BA10000D0A5265747279696E6720696E20332051
:10BA20007365630D0A0000000D0A52657472696542
:10BA300076656420662F7720696E666F0D0A0000B8
:10BA40000D0A446F776E6C6F6164696E6720662FB4
:10BA5000770D0A000D0A4E657720662F7720696EF4
:10BA60007374616C6C65640D0A0000000D0A466118
:10BA7000696C656420746F20696E7374616C6C20EE
:10BA8000662F770D0A0000000D0A52657175657307
:10BA900074656420662F7720616C7265616479201B
:10BAA0006C6F616465643B2061626F7274696E677C
:10BAB0000D0A00000D0A5365727665722064696490
:10BAC000206E6F7420726573706F6E642077697476
:10BAD000682072657175657374656420662F770DD3
:10BAE0000A0000000D0A556E61626C6520746F20BB
:10BAF00067657420662F7720696E666F0D0A0000F7
:10BB00000D0A556E61626C6520746F20636F6E74F0
:10BB1000616374207365727665720D0A000000001F
:10BB20000D0A4572726F723A204661696C65642035
:10BB3000746F2065786368616E6765206461746105
:10BB40002077697468207365727665720D0A00004B
:10BB50000D0A4572726F723A2054797065206669D9
:10BB6000656C64206D69736D6174636820696E2013
:10BB7000736572766572277320726573706F6E736A
:10BB80006520746F206461746120726571756573DE
:10BB900074207061636B65740D0A00000D0A4572B4
:10BBA000726F723A2048617264776172652049440D
:10BBB0002C20736F66747761726520766572736985
:10BBC0006F6E2C206F7220616464726573732066DF
:10BBD00069656C64206D69736D6174636820696E5A
:10BBE00020736572766572277320726573706F6E4D
:10BBF000736520746F20646174612072657175656E
:10BC00007374207061636B65740D0A000D0A4572D0
:10BC1000726F723A20436865636B73756D206D694E
:10BC2000736D6174636820696E20736572766572E6
:10BC3000277320726573706F6E736520746F206454
:10BC40006174612072657175657374207061636BD6
:10BC500065740D0A00000000446174612077726908
:10BC60007474656E207375636365737366756C6C4D
:10BC7000792E0D0A000000004552524F523A2044DE
:10BC8000617461207772697465207665726966698E
:10BC9000636174696F6E206661696C6564210D0A69
:10BCA000000000004552524F523A20446174612016
:10BCB00072656164206661696C6564210D0A00002B
:10BCC0004552524F523A2044617461207772697430
:10BCD00065206661696C6564210D0A0045726173B7
:10BCE000696E6720666C61736820626C6F636B209D
:10BCF00025750D0A000000004552524F523A20456A
:10BD0000726173696E6720666C6173682066616931
:10BD10006C6564210D0A00000D0A52657472796920
:10BD20006E6720696E203130207365630D0A000054
:10BD30000D0A4661696C656420746F206765742024
:10BD40007061636B65742066726F6D2073657276C7
:10BD500065720D0A000000005265747279696E67A1
:10BD6000206E6F770D0A00000D0A4661696C6564EC
:10BD700020746F2070726F6772616D2070616765EB
:10BD80000D0A00000D0A20504144443A2025303865
:10BD9000782C253038782C253038780D0A000000B2
:10BDA0000D0A435243206F66206E657720696D61EE
:10BDB000676520766572696669656420737563637B
:10BDC00065737366756C6C790D0A0000496D616767
:10BDD00065206865616465722077726974652066A4
:10BDE00061696C65642E205265747279696E672092
:10BDF0006E6F770D0A000000496D61676520686508
:10BE00006164657220777269746520737563636518
:10BE1000737366756C210D0A00000000496D61673F
:10BE20006520686561646572207772697465206653
:10BE300061696C65642E0D0A000000000D0A466100
:10BE4000696C656420746F20766572696679204339
:10BE500052430D0A0000000001000007444556004F
:10BE6000424F4F542E204255494C4420534556458D
:10BE7000522D257320484625752048494425750DC7
:10BE80000A0000005245515F4649524D3A20307831
:10BE9000253034780D0A0000A03A002023D1BCEAF6
:10BEA0005F782315DEEF12120000000073645F62FA
:10BEB0006C655F656E61626C653A2052414D20533E
:10BEC0005441525420617420307825780D0A0000C6
:10BED00073645F626C655F656E61626C653A206178
:10BEE00070705F72616D5F626173652073686F75FA
:10BEF0006C642062652061646A7573746564207483
:10BF00006F20307825780D0A0000000072616D20E6
:10BF100073697A652073686F756C6420626520614F
:10BF2000646A757374656420746F20307825782096
:10BF30000D0A000073645F626C655F656E61626C20
:10BF4000653A206572726F7220307825780D0A008C
:10BF5000232D302B2000686C4C00656667454647F2
:10BF60000030313233343536373839414243444575
:10BF700046003031323334353637383961626364E4
:10BF800065660000A2BF0700A5BF0700A8BF0700A5
:10BF9000412D46612D6638393031323334353637EC
:10BFA0005D002B2D003030007858000000000000AC
:10BFB0000000000000000000000000000000000081
:10BFC0000000000000000000000000000000000071
:10BFD0000000000000000000000000000000000061
:10BFE0000000000000000000000000000000000051
:10BFF0000000000000000000000000000000000041
:10C000000000000000000000000000004300504F4E
:10C01000534958002E0000202020202020202020DE
:10C0200028282828282020202020202020202020E8
:10C030002020202020202088101010101010101018
:10C04000101010101010100404040404040404045C
:10C0500004101010101010104141414141410101E4
:10C0600001010101010101010101010101010101C0
:10C0700001011010101010104242424242420202CE
:10C080000202020202020202020202020202020290
:10C09000020210101010200000000000000000003C
:10C0A0000000000000000000000000000000000090
:10C0B0000000000000000000000000000000000080
:10C0C0000000000000000000000000000000000070
:10C0D0000000000000000000000000000000000060
:10C0E0000000000000000000000000000000000050
:10C0F0000000000000000000000000000000000040
:10C10000000000000000000000000000000000002F
:0CC1100000000000000000000000000023
:08C11C005043FF7F0100000009
:10C12400E425002000000000CCBF0700ECBF07009E
:10C13400ACBF070000000000000000000000000089
:10C1440000000000000000000000000000000000EB
:10C1540000000000000000000000000000000000DB
:10C1640000000000000000000000000000000000CB
:10C1740000000000000000000000000000000000BB
:10C1840000000000FFFF000032000000060708FF67
:10C1940006FF0000000000400000000000400040D6
:10C1A4000400010002000000030000001C00000065
:10C1B4001B00000000000000000000000000D60189
:10C1C4000601000000000000000000000000000064
:10C1D4000000000000300040000100000090D00387
:10C1E4004300000000000000000000000000000008
:10C1F400000000000000000000000000000000003B
:10C2040043000000000000000000000000000000E7
:10C21400000000000000000000000000000000001A
:10C2240043000000000000000000000000000000C7
:10C2340000000000000000000000000000000000FA
:10C2440043000000000000000000000000000000A7
:10C2540000000000000000000000000000000000DA
:10C264004300000000000000000000000000000087
:10C2740000000000000000000000000000000000BA
:10C284004300000000000000000000000000000067
:10C29400000000000000000000000000000000009A
:10C2A4004300000000000000000000000000000047
:10C2B400000000000000000000000000000000007A
:10C2C40059A6070099A307000000000016C0070044
:10C2D40014C0070055BF070055BF070055BF07002E
:10C2E40055BF070055BF070055BF070055BF0700DE
:10C2F40055BF070055BF0700FFFFFFFFFFFFFFFF0C
:10C30400FFFFFFFFFFFF00000100415343494900C5
:10C314000000000000000000000000000000000019
:10C3240000000000000000000000415343494900A0
:10C3340000000000000000000000000000000000F9
:10C3440000000000000000000000000025040700B9
:08C354000104070000000000D5
:020000020000FC
:020000041000EA
:0410140000000700D1
:0410180000E00700ED
:04000003700092DD1A
:00000001FF
